:020000040000FA
:1000000000C00091780005FD42C0F092000608E1B2
:10001000009314060FEF0A950023E9F700910806F4
:1000200004FFECC0E0E0F0E0079116910F3F19F4F7
:100030001F3F09F4E3C02BC03091CF0137FDFCCF47
:100040003BB72BBFF8012091CA0113E21093CA01FC
:100050000A01E8952093CA013BBF08953BB72BBF27
:10006000F8012091CA014093CA013DE93093340060
:10007000E8952093CA013BBF089501E70DBF00E258
:100080000EBFC6E9DAE21E94B8001E947C0AF09214
:10009000140600910020109101200A3A154511F034
:1000A0000C940000F0920020F092012000E20093F6
:1000B0007800F6CFFF84EE84DD84CC84BB84AA84F0
:1000C000998488847F806E805D804C80BB81AA810A
:1000D00099818881F0E0EC0FFD1FEF010895FA92FD
:1000E000EA92DA92CA92BA92AA929A928A927A92F0
:1000F0006A925A924A92BA93AA939A938A930895CB
:10010000AF93BF93D80101900D9241505040D9F761
:10011000BF91AF9108954091CA01E22FF32F009350
:10012000CA0104914093CA01089540E04BBFF80111
:1001300058ED54BF208308954A951AF016950795F7
:10014000FBCF08954A951AF0000F111FFBCF0895B9
:1001500020E008D0E9F708953BBF27913BB702D0D4
:10016000D9F708952D9301501040202F212B089589
:1001700002E1402E05E1502E04E0602EF201362D02
:100180006BBE07911691F201EE5FFF4F3F4F3BBFF1
:10019000A791B691F201362DEC5FFF4F3F4F3BBF69
:1001A000479157916691242F252B262B21F0FA0198
:1001B000362FD2DF01C0CCDF07E0400E00E0501E3A
:1001C000601EA201662D403255416440B8F2089588
:1001D000BD01D801F90104C021912D934150504037
:1001E000242F252BC9F7DB01089500000000000033
:1001F000000000001C947D011C94B2013ECF0FBF93
:1002000008952AE107D00093FA042BE103D000936C
:10021000FB04089530E002E01E948B000F3F09F4C8
:100220000FE108951E947C0000E00093600000E35D
:100230001E94040A30D10064008301E00093600042
:10024000AFB7F89451D028E0029FF001E854F64D82
:10025000158303950230C0F3D4DF0091C0040093EE
:10026000C00419D10068008300810061008388EB1D
:1002700099E20496E6EC80839183E0EC46D10FEF9F
:100280000583E8EC0081016000830A2FB8DFE3E01A
:100290001C9467008991089500E008950FB7F894C1
:1002A00010E41093CA0410E21093CA04E1ECF4E0E5
:1002B000108111601083E9EC108112601083E8EC6A
:1002C000108110641083E9EC108111601083E8EC58
:1002D00010811068108393CF008308950093C304A6
:1002E00008950091C304089500E010E008950AD134
:1002F000068F178F20A331A3089566D00091CB04F9
:1003000007FF05C000E814D21E94250429C0F9D1C6
:10031000002331F5EBECC0D004FF18C000E108D297
:100320001E94110400E00093C30420E430E010E0C8
:1003300062D020E430E010E000E85DD006EE19E283
:100340000093C0291093C12929D10AC0008106FF5A
:1003500002C000E404C0008105FF02C000E2E8D151
:100360001ED0189531D09ED101FD02C085D1B1F4C7
:1003700002E00093CC040091C5043BD0F801008159
:1003800005FF06C036D020E2F801269308D106C04A
:1003900000E830D020E2F8012693C0D0E1CFACBF16
:1003A0009BBF8FBF09911991299139914991599119
:1003B000699179910990199029903990E991F99171
:1003C00089919991A9910895AA939A938A93FA93FE
:1003D000EA933A922A921A920A927A936A935A93D9
:1003E0004A933A932A931A930A938FB79BB7ACB761
:1003F000089500E01AC08A932051304041F0205106
:10040000304039F02052304031F080E005C081E0CA
:1004100003C082E001C083E0EDDF20E0F80121832A
:1004200026E020838064818335CF6CEB79E2202F36
:100430002F70220F402F440F57DF001F020F43E0A1
:100440001E94A200060F171F08959D01E8EC24D00A
:100450000F7D008300810F7D00833BD102E0059377
:10046000A6ECB9E241DF0D930C93539600E206939C
:1004700000E4069338D1069300E406931D931D9380
:100480001C9311961D931D931C9317971D931C93FA
:1004900010A7D9010895E0ECF4E000810895FFD0A1
:1004A000002331F0033011F0043009F41FD176D06D
:1004B00029D006811781083050E0104009F548E046
:1004C00026EE39E20EEC19E21E94E800E8ECF4E0C6
:1004D0001CD01BD01E94DB05002309F4E6C012D00B
:1004E000068907FF04C014D002E004A717C0048DDA
:1004F000158D012B09F405C00BD001E004A7EFD046
:100500000895DFC0E8EBF9E2089500810062E4CECF
:1005100000E000A701A702A703A70895BCD00330FD
:1005200011F43BD037C083D080A191A1801B910BE7
:10053000282F292BA9F47FD0048D158D02171307BE
:1005400019F005A5002311F0C7D024C080D081F098
:100550007BD071F000E0FD0102A703A780A191A16B
:10056000803400E0900720F080E490E005A703C00D
:1005700001E00093E529FD0186879787068D178D99
:1005800022A533A5020F131F008B118B89014AD0BE
:10059000A0D0A6D0E4E01C946600A8D056CF7BD0B3
:1005A000043011F4FADF3DC0FD018681978162A518
:1005B00073A520A131A18B01080F191F2017310746
:1005C00018F4C901861B970BAC0126EE39E2068DA3
:1005D000178D060F171F1E94E80029D023D08034F2
:1005E000904031F42CD0448D558D2417350740F0C0
:1005F00000A311A32CD011F027D059F062D011C064
:1006000020A131A12017310759F421D011F01CD0BD
:1006100011F44BD006C00BD00ED000E002A703A708
:100620005ED0B8CF080F191F02A713A70895FD01C8
:1006300002A513A5089503D020A731A7089520A5EA
:1006400031A5200F311F089559D00023089545A1E9
:1006500056A167A100E0403050076007089522D0FE
:1006600001FD09C009D039F41AD0013009F449CF8D
:10067000043009F41DD008955ED0E7CF13D001FDFA
:1006800009C0FADF39F40BD0023009F425C0033079
:1006900009F40ED008951E947B00A8EBB9E20091F6
:1006A000E42908950091CC04089505E00093E4291D
:1006B000E5ECF9E204E00593EDEBF9E204E00593E3
:1006C000089520DF03E004A700E00687078701D034
:1006D00007C0E4ECF9E2089504E00093E42903D0B4
:1006E00002E006930895ECEBF9E208950BDF42A1D6
:1006F00053A164A1AFDF09F001D00895FA016CBFE6
:100700001994EBECC9DE02FF08C0F093CA04009113
:10071000C42906FF0BC0A3DF09C0008101FF07C089
:1007200002E006D00091BC2906FDA8DF16C0B4CDBA
:100730000093CA040895B6DF00FFAECD01E0009338
:10074000CC04D1DF00E80693C4DF00E8069301E0A3
:10075000EFDFC9DF00E10693A2DE01E00895BD01ED
:100760004DD12681222371F1A281B3812D913C913B
:10077000D90114964C91041728F524833583D901A7
:1007800012964D915C91240F351F06C04C9150E09C
:10079000A40FB51FA483B583A481B581A217B307A5
:1007A00088F411964C911197443081F712964C9130
:1007B0001297041759F713964C911397141731F7A2
:1007C00001E001C000E0DB0108953DD0802F10E082
:1007D000E8D111F400E006C015D003811481258111
:1007E000D5D101E04DC02FD0802FDBD149F00AD008
:1007F000008111812281CAD1002311F001E001C0E2
:1008000000E03EC0A2E5B1E2ED91FC91A281B3818E
:1008100002E0809FA00DB11DED91FC9108951C9404
:10082000120111D00DD139F080E003C0082FCDDFC7
:10083000839509D1D8F300E00093562101E010E040
:100840000D931C931DC01C947B00A3D1C9F080E0C4
:100850000EC0FD0118D044855585668500E0403006
:100860005007600719F0FA016CBF19958395C6D03F
:10087000A281B381ED91FC9111970481801748F317
:10088000E4E01C9466000281138177D10081F1813C
:10089000E02F08950091D0290F771C946E010091EC
:1008A000D029002329F00A9541F00A9511F125C0BD
:1008B00024E030E00AE011E21AC025E000EF10E287
:1008C00040E050E032E0F801E40FF51F6081439F03
:1008D000F001E653FF4D628353834395421798F32B
:1008E000220F2E5F2093CA2030E00AEC10E2A6D03F
:1008F00005C022E106EF10E2E3CF7CC101E00895DC
:1009000074D0FD014281238108E411E22A9529F087
:100910002A95A1F02A9551F12CC02DD0208130E0EC
:10092000F801008111818AD065D0228533850217B4
:10093000130710F40287138701E054C01CD02189EB
:100940004217B8F4F801F9D024E0429F000D111DC0
:10095000F80100811181F801228133816FD022E0FA
:10096000FD010085F185E02F2183DECF98DF002394
:10097000D9F600E0E2CFF8012081F181E22F08955D
:1009800034D038D0012B59F51E947101002339F170
:10099000E8E4F1E27BDF2189FD0102812017F8F014
:1009A00040DFFD0102810093562120915621222330
:1009B000C1F0E8E4F1E2C1D034E0239F000D111D45
:1009C000045010401BD002831383A0E001C0A39504
:1009D000EAD0A01730F410E04ED00023C1F700E0B9
:1009E00001C001E0A991B9910895BA93AA93AEEC20
:1009F000B9E20895FD01068117810895E0E5F1E26D
:100A0000089521DF93D0068117810130104039F419
:100A100017D029F0848117D010F4C1D011F400E070
:100A20000CC0FD01A7D02FDFAED00093572121E0ED
:100A300030E017968D0102D001E022CF1C9477019F
:100A4000A0E5B1E2A8C0FD01B0D080170895AA9337
:100A50008A936CD06ED041F49ED031F0A481828113
:100A60000A2FB3DE002311F400E002C0182F03D0D8
:100A70008991A99108950A2FB6CE58D0008107FF19
:100A80002DC026813781022F032B09F447C0008136
:100A90000F71F1F41181112329F0165069F01250F1
:100AA00061F016C0223000E0304009F0089522E0E5
:100AB00030E000E511E20AC023CF213000E03040F1
:100AC00009F0089521E030E006E511E2B7DF16CF26
:100AD000013021F501810A3009F593CF0F7101F53D
:100AE00011811A9581F01250C9F0125019F014506A
:100AF000B1F016C01ED091F40AE414E022E004879D
:100B000015872687E4CF15D049F417D0013010405F
:100B100029F474DF00810D7F0083D9CF6BC030CF03
:100B20000130E1F701810B30C9F791CFEEECF9E22A
:100B3000089506811781012B08950281138108957C
:100B400028D091F08091D2292ED0801768F427D038
:100B500059F054DF0FD0F1DF10D0A081B181FD0139
:100B600012D0102F1DD011F400E003C043DF208508
:100B70000DD086CE0281F3818BCE22E0829F000DC4
:100B8000111DF8010895018512852385F8012CBFF8
:100B900019941E947B00009156210023089510E0C3
:100BA000082FDDDDFACFE0E5F1E2E4DF0081F1813D
:100BB000E02F04810895BADF00E0028703870487ED
:100BC000058706870787008B018B008107FF02C01E
:100BD000B0DF81F00091CE29007619F44EDF0023BA
:100BE00041F40091CE290F71013021F4A9DF0023D7
:100BF00009F084CE00E0089500E00093732152D004
:100C00001E94460A1E94550AD2C00895BA93AA9318
:100C1000AEECB9E20091CE2900760032F9F51091E0
:100C2000CF290C9107FF17C0125041F01A9599F582
:100C300026E030E002E611E25ED12BC0F8D0408D14
:100C4000518D628D00E040305007600721F1FA01BC
:100C50006CBF199524C01A9521F01350E1F422D0ED
:100C600018C000917321002341F000E01E947B0A1C
:100C70000CE61AE022E01C9609C020E430E006E70A
:100C800011E239D101E616E022E01F960D931D9383
:100C90002C9301E004C0CBD00FE064D000E0A99118
:100CA000B991089502C000E0089500E0E1D0EEECB3
:100CB000F9E200E00787008B018B04870587068730
:100CC0000895F0DF00E0B3D0008F018F028F01E0C4
:100CD0001E947B0AE6E7F1E230812181203001E0B9
:100CE000300709F420C0203003E0300709F43DC08C
:100CF0002130300709F453C0203004E0300739F4C4
:100D00001E945D0A002300E009F4089550C02330CA
:100D1000300721F401E00093732108952330364019
:100D200009F452C0C0CF83D0048D158D012309F082
:100D30009CC047815085618540305040604011F42F
:100D400010D002C027D009F4AECF20E038E0D1D0D7
:100D500002EF17E022E0EEECF9E20787108B218B1F
:100D600028C003E002870AE0AACF14D019F023D0EC
:100D700011F4F7DF98CF048D158D012321F005E3E1
:100D800017E022E003C00EE617E022E0008F118F8B
:100D9000228F0FC008E711E271D000230895FADF17
:100DA00019F009D011F4DDDF7ECFA7D002C0009387
:100DB000742101E00895E8E5F1E2448155816681FE
:100DC00040305040604008952497E6E7F1E2038107
:100DD0001281112319F01A9559F026C00131F0F44F
:100DE00029D000E024D0008B018B028B038B1CC028
:100DF00040E0488349834A834B830B8304810A8301
:100E000016D0088119812A813B81408151816281FC
:100E10007381041715072607370728F008D008E064
:100E2000A1DF00E002C0CFD001E024960895E8E5FC
:100E3000F1E20895033041F0023031F0043021F046
:100E4000053011F011E001C010E01093752112E09F
:100E5000019FF001E955FF4D6081F18108E511E244
:100E6000E62F4AE050E01C94800003E001D01BCF45
:100E70000093622102E00093662108951E947A0097
:100E8000A8E5B1E2FD0122893389F8015081418052
:100E9000FD01408A518BF801128103810D901D9054
:100EA0002D903C901397001511052205330540F055
:100EB00008E0009362210AE00093662100E00BC085
:100EC0000419150B220B330B66D0FD01048B158B17
:100ED000268B378B01E0E5E01C946500A8DF2488B1
:100EE000358964D0222D6CD0A2DF2489358901D0C8
:100EF00060CF06EB11E21C9477011E947B00A8E5FD
:100F0000B1E24ED0012B022B032B49F400E018EF85
:100F1000048B158B068B078B80E098E01BC040D0BC
:100F2000402F412B422B432B99F1003048E014070E
:100F300080E02040304010F4C80101C098E0A801D2
:100F400066897789481B590B60407040448B558BEC
:100F5000668B778B392F2AD0282F32D046EB51E27F
:100F600004C0FD0158D017D02ED08C010197012B61
:100F7000B1F2FA010191AF010F3F99F305E000933F
:100F8000622108EE17E022E0FD01008F118F228F11
:100F9000E4E01C9466000F5F1F4F2F4F3F4F0895F2
:100FA000FD01048915892689378908954089518969
:100FB00062897389048115812681F8012CBF089507
:100FC00006EB11E21994008B118B228B338B089561
:100FD0002EDF008941894093B6210093B72122E09A
:100FE00030E085CF24DF17D064897589402F4F7397
:100FF000042E112446EB51E2400D511D0780108450
:101000002184F0012CBE199500E0EEECF9E207878F
:10101000008B018BCECE00891189228933890895F6
:10102000B901B2D0208127FDFDCFECEC20812860F2
:101030002083105F98018B011E94E800ECECF1E036
:101040000081077F008308951E947B00C801A22FB2
:10105000B091CA013AD098D0008107FDFDCF82D06F
:101060009093C1018093C001A093C40105E337D0E0
:10107000B093CA01E4E01C9466001E947900C80194
:10108000D9012A010DC08D0134D045E08C011E9498
:101090009C004AD08096909600EE400E0FEF501EB6
:1010A000042D052979F0082F0F7129F400E240166C
:1010B00000E0500640F72D918C01C6DF01960FEF3E
:1010C000400EEDCFE6E01C9464005ED0008107FD89
:1010D000FDCF008101FF02C006E301D00895009317
:1010E000CA0121E00BEC11E01C9495003093CA0179
:1010F00008953091CA012091CF0127FDFCCF0BD07C
:101100002093C001F80141918F014093C4012395C0
:101110002032B0F3EBCF23E32093CA0120E02093E9
:10112000C2012093C10108952ED0108117FDFDCF7B
:10113000DAD005E321C09A938A93802F9091CA0157
:10114000C4DF46D007FDFDCF0DD00093C10111D003
:101150008093C40103950032D0F39093CA01899122
:101160009991089503E30093CA0100E00093C2013E
:1011700008950093C00108950093CA01B2DF8093DF
:10118000CA01899108958A93EFECF1E00895FBDF9D
:10119000008107FDFDCFB0D000E3EECF01D0F7CF47
:1011A0000FEFC9CF1E947B00DA01CB01A801622F9B
:1011B0000FD007FDFDCF082F092B49F0FA016BBFB7
:1011C00006910D934F5F5F4F6F4F0197F4CF52CF52
:1011D0000091CF0108951E946F0022974A015B0190
:1011E000280139011170802F952DD901801B910B99
:1011F000A040B040CA8807C0EBDF07FDFDCF45E245
:10120000002D1E942E000A2D0B2909F455C0DD2453
:10121000DFDF07FDFDCFEE24FF24F394CC2071F037
:10122000FC01ABBF07911691088319832881312FE8
:101230002F3F3F4F31F0DD24D39403C00FEF0883DD
:1012400009830A2D0B29C9F0481659066A067B0640
:1012500031F43BD0088334D00A2D0B2971F08C0176
:101260009D010F5F1F4F2F4F3F4F401651066206E3
:10127000730619F42AD0098323D0488159818C013F
:101280009D011E941C008E5F9F4FAF4FBF4F0FEF0D
:10129000E00EF01E0E2D0F2909F68C019D01005065
:1012A000124020403040DD20002E09F0A5CF90DF15
:1012B00007FDFDCF44E2A4CF2296E1E11C945A0041
:1012C00001E0800E00E0901E08950FEFA00EB01E0A
:1012D00005D0601E701EF4010081089501E0400EEB
:1012E00000E0501E089510E2019F00E00093C2014B
:1012F0001092C1010092C0018091CA0108950FBFF0
:101300000895083049F01FB7F894E0E5F0E0208137
:10131000202B2083012F72D008958A938FB7F894E1
:101320000A9519F00A9559F023C0183019F424D001
:10133000016002C023D00E7F0083E8E616C01ED0F5
:10134000097F0083183019F417D002600CC01430E4
:1013500011F4008108C01F3F39F400E807870BEB48
:10136000008B008104600083E0E60081016000835F
:10137000082F44D08991089504E0C3DFE6E5F0E04A
:10138000008108952497E0E7F0E007E01FEF119354
:101390000A95E9F724E001E44AD02CE124D009833E
:1013A0002DE121D0088319810F3F1F4F21F400E464
:1013B00013E208831983088119810A831B830A8138
:1013C000009362000B810093630034D021E000E4BD
:1013D0002ED00FB7F894E0E5F0E010811E7F108367
:1013E0000DD02496089530E002E01C948B004FB796
:1013F000F894109504D001230083042F80CFF0E0EF
:10140000E02FE059FF4FBCCF8A93063011F488E1FA
:1014100001C080E00091510001FB0EF00BD0836011
:10142000282F04E404D010E400E0E1DFA3CF10E0B3
:101430001C94950002E065DF0091510001FBE6F786
:101440001FEF02E06ACF0A011B01B901A801800168
:1014500091011C94D208E1E0EA931C94EB080A0184
:10146000A901980180011C9410089A01AB011C94F9
:101470003D080A01A90122E730E2200D311D1C942C
:10148000E8000A01A9012CE431E2F7CFECE4F1E233
:1014900000919000008300919100018300919200DF
:1014A00002830091930003830895E0EDF1E0008151
:1014B00001FB00E000F90F2708950091CF0107FD1F
:1014C000FCCF40E200E010E020E030E01E942E006F
:1014D0001E94CE0801E00895F8940AEA15E5E0E0CC
:1014E000F0E20083118320917900216009E710E088
:1014F0001E949500FFCF089527E402EA10E01E94A1
:1015000095001E94C20978941E940F041E944E01F7
:10151000FFCFDA084C21000000DA00722020150409
:1015200004000000000400230A022B0A020010003D
:10153000002F0A02350A0203000000390A020000E7
:101540000004000000410A0200000000000000004A
:10155000000000000075207F209D209D20892093A1
:10156000209D209D209D209D209D209D209D209D93
:10157000209D209D209D2000000300000000000011
:10158000000000000000000000000000000000005B
:1015900000000000000000000000000000004154B6
:1015A0004D454C00444655204154584D4547413225
:1015B000353641334255000004030904FC05020599
:1015C0000602060602530602000000001201000295
:1015D00000000040EB03E22F0400010200010902B9
:1015E0001200010100C0320904000000FF000000E9
:0A15F0000E21302142211E2144216A
:00000001FF
