:100000001C9415011C9429011C9429011C9429019C
:100010001C9429011C9429011C9429011C94290178
:100020001C9429011C9429011C9429011C94290168
:100030001C9429011C9429011C9429011C94290158
:100040001C9429011C9429011C9429011C94290148
:100050001C9429011C9429011C9429011C94290138
:100060001C9429011C9429011C9429011C94290128
:100070001C9429011C9429011C9429011C94290118
:100080001C9428061C9429011C9429011C94290104
:100090001C9429011C9429011C9429011C942901F8
:1000A0001C9429011C9429011C9429011C942901E8
:1000B0001C9429011C9429011C9429011C942901D8
:1000C0001C9429011C9429011C9429011C942901C8
:1000D0001C9429011C9429011C9429011C942901B8
:1000E0001C9429011C9429011C9429011C942901A8
:1000F0001C9429011C9429011C9429011C94290198
:100100001C9429011C9429011C9429011C94290187
:100110001C9429011C9429011C9429011C94290177
:100120001C9429011C9429011C9429011C94290167
:100130001C9429011C9429011C9429011C94290157
:100140001C9429011C9429011C9429011C94290147
:100150001C9429011C9429011C9429011C94290137
:100160001C9429011C9429011C9429011C94290127
:100170001C9429011C9429011C9429011C94290117
:100180001C9429011C9429011C9429011C94290107
:100190001C9429011C9429011C9429011C942901F7
:1001A0001C9429011C9429011C9429011C942901E7
:1001B0001C9429011C9429011C9429011C942901D7
:1001C0001C9429011C9429011C9429011C942901C7
:1001D0001C9429011C9429011C9429011C942901B7
:1001E0001C9429011C9429011C9429011C942901A7
:1001F0001C9429011C9429011C94290158426A016C
:1002000073077A077C07B707CD079107CA071C94C5
:10021000CA071C94CD071C947A071C9491071C9460
:10022000B7071C9473071C947C0711241FBECFEFE3
:10023000CDBFDFE5DEBF02E00CBF22E2A0E0B0E20E
:1002400001C01D92A130B207E1F71E9401041C9475
:10025000E0071C9400003BB78BBFFB0186913BBFBE
:1002600008953BB78BBFFB01879196913BBF0895E3
:1002700042E097C041E095C08093C00188278093F9
:10028000C1018093C20147E07CD0CB0108958093E7
:10029000C40148E076C08091D00108953BB748E1A1
:1002A0001C94D6013BB74AE11C94D6013BB7882782
:1002B00099278BBF40E21C94D6013BB78BBFCB0183
:1002C00042E21C94D6013BB70B0143E21C94D601D9
:1002D000EE27FF2719BEDC0143E24093CA0150E03C
:1002E0002DE90D901D9020933400E89532965A9593
:1002F000C1F7112408953BB76BBFFA0119BEDC01A9
:1003000040E04093CA0150E0879197918D939D936F
:100310005A95D1F73BBF08953BB78BBFCB0144E261
:100320001C94D6013BB78BBFCB0145E21C94D60190
:100330003BB746E21C94D6013BB78BBFCB014AE2E8
:100340001C94D6013BB78BBFCB014CE21C94D60169
:100350003BB78BBFCB014DE21C94D60148E311C0E3
:1003600049E30FC028ED2093340021E02093CC0115
:1003700008952091CF0127FDFCCF22272093CA01A9
:1003800008954093CA0128ED31E020933400309362
:10039000CB016091C4017091C5018091C60199277C
:1003A0000895FC014093CA0184910895FC01409393
:1003B000CA012DE920933400E89511243BBF08952C
:1003C0008627682F62956827062E669566956025B4
:1003D000062E669560256770082E892F669507940E
:1003E0006795902D86270694679590258627089512
:1003F000909100209230F0F78091B10987FFFACFF9
:1004000081E0809300208091B009089590910020B0
:10041000923058F48093B0098091B10986FFFCCFE7
:100420008091B10980648093B10908951E94F80108
:100430008F931E94F8019F91882F0895AF92BF92D9
:10044000CF92DF92EF92FF920F931F93CF93DF93A0
:100450001F92CDB7DEB77C01262F5A0141E0C42E92
:1004600040E2D42E00E010E00E151F0528F4298389
:100470001E94F801298101C08FEFF60181936F016D
:100480000F5F1F4F0115F2E01F0771F72534B1F41C
:10049000A70161E070E2F501808191811E94D90687
:1004A000F50100811181228133810E0D1F1D211D57
:1004B000311D008311832283338334C0263411F02D
:1004C000253571F5F50180819181A281B381F69482
:1004D000E794AC01BD014E0D5F1D611D711D408390
:1004E000518362837383263461F4BC01CD01660FAE
:1004F000771F881F991F21E041E050E21E94D40528
:1005000011C0253579F481E090E21E9468011E94B3
:100510004E011E94B9011E9452011E94B90102C0ED
:100520008FE301C08DE00F90DF91CF911F910F916C
:10053000FF90EF90DF90CF90BF90AF9008959F9283
:10054000AF92BF92CF92DF92EF92FF920F931F93E1
:10055000CF93DF937C01962EEA0185E4681316C0E1
:10056000A70161E070E2888199811E949B068881D1
:100570009981AA81BB818E0D9F1DA11DB11D88830C
:100580009983AA83BB83C1E0D0E25BC086E468178D
:1005900031F085E5681719F080E568135CC0888143
:1005A0009981AA81BB81880F991FAA1FBB1F8883CD
:1005B0009983AA83BB836701A12CB12C86E498128E
:1005C0000AC085010F5F1F4F688179818A819B81F5
:1005D0001E942B0114C085E5981208C085010F5F99
:1005E0001F4F888199811E943A0109C080E59812B5
:1005F0000BC085010F5F1F4F88811E943801F501E4
:10060000EF5FFF4D808358011E94B9010881198165
:100610002A813B810F5F1F4F2F4F3F4F0883198364
:100620002A833B8381E0C81AD108C114D10431F672
:100630003695279517950795088319832A833B8359
:10064000A2CFCE01815090428E159F0524F489914E
:100650001E940602F6CFDF91CF911F910F91FF906C
:10066000EF90DF90CF90BF90AF909F9008958F92C2
:100670009F92AF92BF92CF92DF92EF92FF920F9331
:100680001F93CF93DF936B017C0149015A0100E076
:1006900012E0C0E0D0E081149104A104B10401F1A2
:1006A000011582E0180761F4B701A60181E090E22C
:1006B0001E947B0182E0D80EE11CF11C00E010E0EA
:1006C000F801EF5FFF4D6081CE011E94E001EC0167
:1006D0000F5F1F4F81E0881A9108A108B108DBCF96
:1006E000CE01DF91CF911F910F91FF90EF90DF909E
:1006F000CF90BF90AF909F908F900895CF92DF9250
:10070000EF92FF92CF93DF9340E05EEF63E070E003
:1007100081E090E21E947B018091FB21883509F0F5
:1007200069C08091FC21823409F064C08091FD2170
:10073000893409F05FC08091FE21863409F05AC0E7
:10074000E090FF21F12CFE2CEE2480910022E82A7B
:100750002AEF3FEF41E050E060E070E082E090E09F
:100760001E943703C6E0D0E06FEF1E94E00121979E
:100770002097D1F7E816F90641F0DF91CF91FF906D
:10078000EF90DF90CF901C949107C12CD12C760173
:10079000D1E0CFEFD0930706B701A6016E5F7F4F80
:1007A00081E090E21E947B01C1148EEFD80681E0B7
:1007B000E806F10491F021E041E050E2C701B60102
:1007C0001E94D40582E0D80EE11CF11CC114D104A2
:1007D00082E0E806F104F1F6D0CFC093FB21C0938C
:1007E000FC21C093FD21C093FE21C093FF21C09343
:1007F0000022E1CFDF91CF91FF90EF90DF90CF907B
:100800000895EF92FF920F931F93CF93DF93CDB78D
:10081000DEB72597CDBFDEBF19821A821B821C82EC
:10082000109200208091500082608093500080914F
:10083000510081FFFCCF98ED94BF81E08093400090
:100840008093600094BF90E49093A200809301068F
:10085000809305061E945C0788E1809376063091AC
:10086000002046E080E395E7A0E0B0E051E000978B
:10087000A105B10521F00197A109B10907C0509365
:100880000706415080E395E7A0E0B0E02091B10970
:1008900027FF03C031E021E001C020E0A89522231A
:1008A00041F03093002021E000E010E0FF24F394B9
:1008B00014C04111DCCF30930020F6CF803581F198
:1008C0008C3471F1853409F0D1C08DE01E9406029C
:1008D00020E02D831E94B9012D81222309F446C105
:1008E000F09207061E94F801813611F489E53AC1A9
:1008F000813429F41E941602A0E0B0E064C088346C
:1009000039F41E94F801A82F1E941602BB275BC071
:10091000853641F41E9456011E94B9011E94540765
:100920008DE020C1823629F489E51E94060282E01A
:10093000A4C0823469F41E9416028C011E94F8013E
:10094000AE014F5F5F4F682FC8011E941E020AC19F
:10095000873669F41E9416028C011E94F801AE01CC
:100960004F5F5F4F682FC8011E949F02FDC0823504
:1009700081F469817A818B819C81660F771F881F42
:10098000991F1E943101E82E892F1E9406028E2D88
:1009900044C0833629F41E94F801082F10E0C0CF1C
:1009A0008334B1F41E94F801182B89819A81B8011F
:1009B000880F991F1E94630189819A81AB81BC8144
:1009C0000196A11DB11D89839A83AB83BC83A8CFF7
:1009D0008D3699F489819A81AB81BC81009722E0A0
:1009E000A207B10508F0BDC0BC01CD01660F771F9D
:1009F000881F991F1E948C0193CF843441F41E9458
:100A0000F801682F89819A811E947C06D5CF84369F
:100A100091F489819A811E9458061E940602898158
:100A20009A81AB81BC810196A11DB11D89839A83F6
:100A3000AB83BC8399C08C3629F41E94F8011E94B4
:100A400047016ECF823719F41E944B018BC0863458
:100A500011F480E008C08E3411F481E004C08135C7
:100A600009F02CCF82E01E943C017CC0803711F449
:100A700083E578C0843729F48BE71E94060280E072
:100A800071C098E8980F923010F0843519F41E94D4
:100A9000F80146CF8335A1F488E51E94060282E46E
:100AA0001E9406028FE61E9406028FE61E9406022E
:100AB00084E71E9406028BE21E9406028BE252C06B
:100AC000863529F481E31E94060287E34BC0833701
:100AD00041F483E41E94060288E91E9406028EE126
:100AE00041C08836E1F51E94F801863421F168F49E
:100AF000813431F18234D9F420E030E240E050E03A
:100B000060E070E084E090E022C0813659F08437E4
:100B100071F420E030E042E050E060E070E082E01C
:100B200090E015C020E030E042E050E00DC08FE3DF
:100B30001E940602D5CE20E030E244E050E004C02E
:100B400020E030E044E050E060E070E0CB011E9433
:100B50003703E82E892F1E9406028E2D03C08B3199
:100B600019F08FE31E94060221E0B3CEF8941E9490
:100B70007E031E9469071092760681E08093020638
:100B80008093060688ED84BF1092A2000C940000AA
:100B900080E090E02596CDBFDEBFDF91CF911F9121
:100BA0000F91FF90EF900895CF92DF92EF92FF9216
:100BB000CF93DF931F92CDB7DEB76B017C01CA01E3
:100BC00029831E9468012981C701B601222319F0E7
:100BD0001E94920102C01E948C010F90DF91CF9160
:100BE000FF90EF90DF90CF901C94B901E8E4F0E023
:100BF000A08190818081809589238083E0EAF0E064
:100C0000708162818281887F846082834FB778940B
:100C1000E8E4F0E0808181608083E0ECF1E05585DC
:100C2000EBECF1E021E030E088ED90E084BF208340
:100C300083E0E0ECF1E085878895A0934800E0EA46
:100C4000F0E070836283E0ECF1E055874FBF0895D8
:100C50001F920F920FB60F9211240BB60F928F9323
:100C6000EF93FF93E0ECF1E085858C7F8587FF9122
:100C7000EF918F910F900BBE0F900FBE0F901F90B2
:100C800018958091CF0187FDFCCF08951E944106F1
:100C90008091CF0181FF0BC086E38093CA01EBEC0A
:100CA000F1E021E030E088ED90E084BF20830895FA
:100CB000CF93DF931F921F92CDB7DEB789839A83BC
:100CC0001E944106E0ECF1E0898180839A819F7156
:100CD0009183128286E08287EBECF1E021E030E044
:100CE00088ED90E084BF2083E0ECF1E084810F90F8
:100CF0000F90DF91CF910895CF93DF9300D0CDB7C0
:100D0000DEB769838A839B831E944606E0ECF1E09C
:100D100023E322878A8180839B819F719183128242
:100D20006981648385E382872396CDBFDEBFDF912F
:100D3000CF911C94F605EF92FF920F931F93CF93E0
:100D4000DF931F921F92CDB7DEB77C018A0110920C
:100D5000C20169837A831E9441066981A62F7A8134
:100D6000B72FC701800F911F66E028ED30E041E00A
:100D700050E0EBECF1E0E816F90689F0E092C001F2
:100D80007F2D7F717093C1016093CA0124BF40839E
:100D90007091C4017D937FEFE71AF70AECCFC80189
:100DA0000F900F90DF91CF911F910F91FF90EF90D7
:100DB00008952F923F924F925F926F927F928F92FF
:100DC0009F92AF92BF92CF92DF92EF92FF920F93DA
:100DD0001F93CF93DF9300D0CDB7DEB73A01282F12
:100DE0002F718C01021B110929836A837B831E9456
:100DF00046061E94410683E38093CA011092C10106
:100E00001092C2016A81E62E7B81F72E130185E3E1
:100E1000582E98EDA92EB12C88248394912C3BEC6C
:100E2000C32EDD24D39443E3442E298121143104BD
:100E300021F12093C001F70181917F018093C401CA
:100E4000F1E02F1A31082114310419F02F5F2032FC
:100E500069F70093C001812F8F718093C101509277
:100E6000CA01C501F60184BF8082005E1F4F1E9437
:100E700041064092CA0120E0D9CFC3012396CDBFDD
:100E8000DEBFDF91CF911F910F91FF90EF90DF9028
:100E9000CF90BF90AF909F908F907F906F905F901A
:100EA0004F903F902F9008951E94410680E3E0EC10
:100EB000F1E082871C94F60580E8E0E6F6E08183A5
:100EC000E0EBF9E087E1868384EA878388E1848325
:100ED0000895E0EBF9E014821682178280E8E0E6DC
:100EE000F6E08283089527E031E0FC01208331831E
:100EF00080E0089582E00895CF93CFB76130710507
:100F000024E08207910550F4F8941E945D011E942C
:100F1000B9011092CA01CFBF80E001C083E0CF9138
:100F20000895CF92DF92EF92FF92CF93CFB7F894CC
:100F3000C12CD12C82E0E82EF12CC701B6011E9401
:100F40005D011E94B90182E0D80EE11CF11CC114B0
:100F5000D10484E0E806F10481F71092CA01CFBF02
:100F600080E0CF91FF90EF90DF90CF900895CF93E6
:100F7000CFB76130710534E08307910540F4F894F0
:100F80001E94D4051092CA01CFBF80E001C083E057
:100F9000CF91089502961C94B707CF93CFB7F894DA
:100FA0001E9468011E944E011E94B9011E945201B4
:100FB0001E94B9011092CA01CFBF80E0CF9108956D
:040FC000F894FFCFD3
:00000001FF
