:100000000C94B6390C94D7390C94D7390C94D73951
:100010000C94D7390C94D7390C94D7390C94D73920
:100020000C94D7390C94D7390C94D7390C94C091CF
:100030000C94D7390C9497920C94B2840C94DF846E
:100040000C940C850C9439850C9466850C949385DE
:100050000C94C0850C94ED850C941A860C944786FC
:100060000C94D7390C94D7390C94D7390C94D739D0
:100070000C94D7390C94D7390C94D7390C94D739C0
:100080000C94D7390C94D7390C94D7390C94D739B0
:100090000C94D7390C94D7390C94D7390C94598FC8
:1000A0000C948B8F0C94BD8F0C94EF8F0C94D739DC
:1000B0000C94D7390C94D7390C94BE920C94368892
:1000C0000C9463880C9490880C94BD880C94EA88F6
:1000D0000C9417890C9444890C9471890C949E8912
:1000E0000C94CB890C94D7390C94AB510C94D73920
:1000F0000C94D7390C94D7390C94D7390C94D73940
:100100000C94D7390C94D7390C94D7390C94D7392F
:100110000C94D7390C94D7390C94D7390C94918E10
:100120000C94C38E0C94F58E0C94278F0C94D739B5
:100130000C94D7390C9474860C94A1860C94CE86BA
:100140000C94FB860C9428870C9455870C9482871A
:100150000C94AF870C94DC870C9409880C94D739E5
:100160000C94D7390C94D7390C94D7390C94D739CF
:100170000C94D7390C94D7390C94D7390C94D739BF
:100180000C94D7390C94D7390C94D7390C94D739AF
:100190000C94D7390C94D7390C94D7390C94D7399F
:1001A0000C944B4E0C943A4E0C94D7390C94D7398E
:1001B0000C94F8890C94258A0C94528A0C947F8AAA
:1001C0000C94AC8A0C94D98A0C94D7390C94D739F6
:1001D0000C94D7390C94D7390C94D7390C94D7395F
:1001E0000C94D7390C94D7390C94D7390C94D7394F
:1001F0000C94D7390C94CD970C94819807634236B0
:10020000B79BD8A71A39685618AEBAAB558C1D3CA7
:10021000B7CC5763BD6DEDFD753EF6177231BF006B
:100220000000803F08000000BE922449123EABAAA5
:10023000AA2ABECDCCCC4C3E00000080BEABAAAA00
:10024000AA3E00000000BF000000803F0000000048
:1002500000084178D3BB4387D1133D190E3CC3BD81
:100260004282AD2B3E68EC8276BED98FE1A93E4C2E
:1002700080EFFFBE01C4FF7F3F00000000000000D0
:10028000000000000000000000000000000000006E
:100290000000000000000007FFFFFFC00FFFFFFF8E
:1002A000E00FFFFFFFE00E000000E00E000000E0A6
:1002B0000E000000E00E3FC1E0E00E3FC1E0E00EA6
:1002C0003FC3F0E00E0003F0E00E0003F0E00E3F4D
:1002D000C1E0E00E3FC1E0E00E3FC0C0E00E000014
:1002E000C0E00E3FC1E0E00E3FC7F8E00E3FC7F8A8
:1002F000E00E000000E00E000000E00E000000E054
:100300000FFFFFFFE00FFFFFFFE007FFFFFFC00150
:10031000FFFFFF00000000000000000000000000E0
:1003200000000000000000000000000000000000CD
:1003300000000000000000000000000000000000BD
:1003400000000000000000000000000000000000AD
:1003500001FFFFFF0007FFFFFF800FFFFFFFC01F30
:10036000FFFFFC003FFFFFF8003FFFFFF8007FFEAC
:10037000FFF0007E3C7FF0E07F1C3FF1F07F841FA8
:10038000F1F07FC00FF1F07FE047F1F07FF0E3F193
:10039000F07FF8F9F0E07FFDFFF0003FFFFFF00095
:1003A0003FFFFFF8001FFFFFFC000FFFFFFFC0072C
:1003B000FFFFFF8001FFFFFF0000000000000000C2
:1003C000000000000000000000000000000000002D
:1003D000000000000000000000000000000000001D
:1003E000000000000000001C000000003F80000032
:1003F000007FE0000000FFF0000001FFF8000003B4
:10040000FFFC000003FFFE000007FFFE000007FFE7
:10041000FF00000FFFFF80000FFFFF80000FFFFFB6
:10042000C0000FFFFFC0000FFFFFE0000FFFFFE065
:100430000007FFFFF80007FFFFFE0003FFFFFF00BC
:1004400003FFF0070003FF80030003FE0007000323
:10045000F8600E0003E1E01E0003C7E03C00079FC8
:10046000C07800071F01F000060007C00006001F4B
:1004700000000381FC000001FFE0000000FF80009D
:10048000000000000000000000000000000000006C
:10049000000000000000700070000070007000009C
:1004A000700070000777FF77000F77FF77800F7776
:1004B000FF77C01F07FF07C01FFFFFFFC01FFFFF21
:1004C000FFC01FFFFFFFC01FFFFFFFC01FFFFFFF99
:1004D000C01FFFFFFFC01E000003C01C000001C0C2
:1004E0001C000001C01C000001C01C000001C01C59
:1004F000000001C01C000001C01C000001C01C0065
:100500000001C01C000001C01C000001C01C000054
:1005100001C01C000001C01C000001C01E0000033F
:10052000C01FFFFFFFC00FFFFFFF8007FFFFFF009F
:1005300000000000000000000000000000000000BB
:10054000000000000000000000000E018000001FFD
:1005500003C000001F87C000001FFFC000001FFF76
:10056000C000003FFFE000007FFFF00001FFFFF848
:100570000007FF07FF000FFE01FF8007F800FF00E4
:1005800003F800FE0003F0007E0001F0007C000193
:10059000F0007C0001F0007C0003F0007E0007F812
:1005A00000FF000FF800FF800FFC01FF800FFF0726
:1005B000FF8007FFFFFF0000FFFFF000003FFFE0AC
:1005C00000003FFFE000001FFFC000001F8FC000C1
:1005D000001F07C000000E038000000000000000A4
:1005E000000000000000000000000000000000000B
:1005F00038000000007C000000007C000000007C4F
:100600000000001C7C6000003E7CF000007E7CF856
:1006100000007E7CFC0000FC7C7E0001F87C3E003B
:1006200001F07C1F0001E07C1F0003E07C0F000351
:10063000E07C0F8003E0380F8003E0000F8003E0D0
:10064000000F8003E0000F0003E0000F0001F00046
:100650001F0001F0001F0000F8003E0000FE00FC3B
:1006600000007F03FC00003FFFF800001FFFF000C8
:10067000000FFFC0000003FF0000000000000000AA
:10068000000000000000000000000000000000006A
:1006900000000000000000000000000000000070EA
:1006A00000000000FC00000001FC00000001FE0052
:1006B000000001FE00000001FE00000001FC00003F
:1006C0000000F8000000000000000003FF00000030
:1006D00007FF00000007FF00000007FF0000000701
:1006E000FF00000007FF00000007FF00000007FFF9
:1006F00000000007FF00000007FF00000001FC00F1
:10070000000001FC00000001FC00000001FC0000F2
:10071000001DFCC00000FDFDF80001F9FC7E000397
:1007200081FC0E00038000060003E0001E0000FFB5
:10073000CFFC00003FFFF0000003FE0000000000BF
:1007400000000000000000000000000000000000A9
:1007500000000000000000000003800000000F8087
:100760000000003F80000000FF00000003F70000D1
:10077000000FC60000003F8E000000FF0C000003C9
:10078000FE1C00000FFC1800003FF83800007FF04E
:10079000300001FFE0700007FFE060001FFFE0E0B5
:1007A000001FFFE1C00003FFE1C000000FE3800075
:1007B0000001E380000001E700000001E700000005
:1007C00001EE00000001FC00000001FC000000013F
:1007D000F800000001F800000001F000000000F047
:1007E00000000000E000000000E000000000400009
:1007F00000000000000000000000000000000000F9
:1008000000000100000000030000000006000000DE
:10081000000E000000001C000000003C0000000072
:100820007C00000000F800000001F800000003F068
:1008300000000007F00000000FE00000001FE000D3
:1008400000003FF80000003FFE0000000FFF8000A6
:100850000003FFE0000000FFE00000003FC00000D8
:10086000003F800000007F000000007E00000000CC
:10087000FC00000000F800000001F000000001E0B2
:1008800000000001C0000000038000000003000021
:10089000000006000000000400000000000000004E
:1008A0000000000000000000000000000000000048
:1008B000000000000000000000000000000000C078
:1008C00000180001F800FE0003FE03FE0007FFFF12
:1008D000FF000FFFFFFF800FC7FFCF801F83FF8741
:1008E000C01F01FF87C01F01FFCFC01F01FE7FC0D7
:1008F0003F01FC3FE03F83FC3FE03FC7FE7FE03F1E
:10090000FFFFFFE03FFFFFFFE07FFFFFFFF07FFF04
:10091000FFFFF07FFE03FFF07FF0007FF07FE0003D
:100920003FF07F80000FF07F000007F07E000003A3
:10093000F03C000001E0100000004000000000005A
:1009400000000000000000000000000000000000A7
:100950000000000000000000000000000000000097
:100960000000000000000000000000000000000087
:10097000000000000004000003FC0C00001FFE1C2F
:1009800000007FFC380000FFF0780001FC00F00060
:1009900003F000F00007C001E1800F8003E3800F47
:1009A0000007C3801F000FC3C01E000F83E03C0080
:1009B0001F83E03C003F01E03C007F00E078007FC7
:1009C00000F07800FE00F07801FE00F07801FC00F5
:1009D000F07801FC00F07801FC00F07800F800707D
:1009E00030007000700000000000000000000000F7
:1009F00000000000000000000000000000000000F7
:100A000000000000000000000007FF0000001FFFC2
:100A1000C000007C7FE00000F0FEF00001C3FC3C61
:100A2000000387FE1E00070FFFC6000E1FFFC30056
:100A30000C3FFF81801C3FFF01801801FF00C03880
:100A4000003F00C03F801F00403F001F80603F000C
:100A50000FF0603F001FF8603F001FF8603F003F4D
:100A6000F8603F803FFC603FC0FFFC603FC1FFFC7F
:100A7000603FC1FFFCC01FE1FFF8C01FE1FFF9802C
:100A80000FE1FFFB8007F1FFFF0003F9FFFE00030A
:100A9000FFF87E0001FFC03C0000FC00F000007E7B
:100AA00003E000001FFF80000007FC0000000000C2
:100AB0000000000000000000000000000000000036
:100AC0000000000000000000000000000000000026
:100AD0000FFFFFFF801FFFFFFFC01FFFFFFFC01FB3
:100AE000FFFFFFC01FFFFFFFC00FFFFFFF8007FFDB
:100AF000FFFF0003FFFFFE0011FFFFFC40187FFF18
:100B0000F0C01C3FFFE1C01F0FFF87C01F87FF0F12
:100B1000C01FE1FE3FC01FF0F87FC01FFC20FFC0D8
:100B20001FFE03FFC01FFF8FFFC01FFFFFFFC01F7F
:100B3000FFFFFFC01FFFFFFFC01FFFFFFFC01FFF22
:100B4000FFFFC00FFFFFFF8000000000000000005B
:100B50000000000000000000000000000000000095
:100B60000000000000000001FC0000000FFF8000FA
:100B7000003FFFE000007E73F80001F8707C000386
:100B8000E0703E0003C0701F000780700F000F0070
:100B90007007800E007003801E007003C01C0000F0
:100BA00001C01C000001C038000000E03800000057
:100BB000E03FF800FFE03FF800FFE03FF800FFE013
:100BC00038000000E038000000E01C000001C01CFC
:100BD000000001C01C007001C00E007003800F00F7
:100BE000700780078070070007C0700F0003E07077
:100BF0003E0001F8707C0000FE73F800003FFFE04B
:100C000000000FFF80000001FC0000000000000059
:100C100000000000000001FC0000000FFF80000049
:100C20003FFFE000007FFFF80001FFFFFC0003FF33
:100C3000FFFE0003FFFFFF0007FE03FF000FFC01A4
:100C4000FF800FF800FF801FF870FFC01FF0F87FD3
:100C5000C01FF0F87FC03FFFF07FE03FFFE0FFE004
:100C60003FFFC1FFE03FFF83FFE03FFF07FFE03FA3
:100C7000FF0FFFE03FFF0FFFE01FFFFFFFC01FFF61
:100C80008FFFC01FFF07FFC00FFF07FF800FFF0789
:100C9000FF8007FF8FFF0007FFFFFF0003FFFFFE3E
:100CA0000001FFFFFC0000FFFFF800003FFFE00035
:100CB000000FFF80000001FC0000000000000000A9
:100CC000000000000007FF0000001FFFC000007FC1
:100CD000FFF00000FFFFF80001FFFFFC0003FFFF33
:100CE000FE0007FFC7FF000FFF83FF800FFF83FF9A
:100CF000801FFF83FFC01FFFC7FFC03FFFFFFFE054
:100D00003FFFFFFFE03FFF87FFE03FFE07FFE03FC1
:100D1000FC07FFE03FF807FFE03FFB07FFE03FFF76
:100D20000FFFE03FFE0FFFE03FFE0FFFE03FFE0F33
:100D3000FFE01FFE19FFC01FFC03FFC00FFC07FFF1
:100D4000800FFC0FFF8007FE3FFF0003FFFFFE0048
:100D500001FFFFFC0000FFFFF800007FFFF0000034
:100D60001FFFC0000007FF0000000000000000009F
:100D7000F800000003FE00000007FF0000000FFF66
:100D80008000001F8FC000001E03C000003E03E073
:100D900000003C01E000003C01E000003C01E000FC
:100DA000003E03E000003E03E000003F8FE0000053
:100DB0001FFFC000001FFFC000001FFFC000000F8A
:100DC000FF8000000FFF80000007FF00000007FF0A
:100DD00000000003FE00000003FE00000001FC0014
:100DE000000000F800000600700300060020030069
:100DF0000E000003800C000001800C000001801C2C
:100E0000000001C018000000C038000000E03FFFF3
:100E1000FFFFE01FFFFFFFC00FFFFFFF800000008C
:100E200000000000010000000007C00030001FF0BB
:100E3000007E007FFC007FC1FBBF007FFBE38FC013
:100E400079FF8383E0703E0380F0700E0380707042
:100E50000E038070700E038070700E038070700E31
:100E6000038070700E038070700E038070700E032C
:100E70008070700E038070700E038070700E03809F
:100E800070700E038070700E038070700E0380709F
:100E9000700E038070700E038070700E0380707887
:100EA0000E03C0707C0E0FFC703F0E3FFFF01FCE94
:100EB000FC3FF007FFF007F001FFC001E0007F00FA
:100EC0000000001C00000000000000000000000006
:100ED00000000070000000007818000100F83800E1
:100EE0000181FC780001E3FCF80001FFFFF800003D
:100EF000FFFFF00000FFFFF000007FFFF000007F29
:100F00008FF8003FFF8FFF803FFF8FFFE01FFF8FB5
:100F1000FFC00FFF8FFF800FFF8FFF8007FF8FFE47
:100F20000001FF8FFC0003FF8FFC0007FF8FFE0016
:100F30000FFFFFFF001FFF8FFF801FFF8FFF803F0E
:100F4000FF8FFFC0007F8FF00000FFFFF00000FF69
:100F5000FFF80001FFFFF80001FDFFFC0003F1F8BE
:100F6000FC0003E0F83C000380F01C00010070006E
:100F70000000002000000000000000000000000051
:100F80000000000000000000000000000000000061
:100F90000000000000000000000000000000000051
:100FA000007800000003F800000007F80000000FC0
:100FB000F80000003FF9F0001FFFF9F0003FFFF9D3
:100FC000F0003FFFF800003FFFF800033FFFF8008C
:100FD000073FFFF8000F3FFFF8001F3FFFF8003EFC
:100FE0003FFFF8003C3FFFF9F0781FFFF9F0780071
:100FF0003FF9F070000FF800700007F80070000370
:10100000F800700000780000000000000000000000
:1010100000000000000000000000000000000000D0
:1010200000000000000000000000000000000000C0
:10103000000000000000000000000040000000016F
:101040008000000007000000000F000000001F00EB
:101050000000003E000000007E00000000FE0000D6
:101060000000FE00000001FF00000001FF00000082
:1010700001FF00000001FF00000001FF80000001EF
:10108000FFC0000001FFC0000001FFE0000001FF01
:10109000F0000001FFFC000001FFFF006000FFFF07
:1010A000FFC000FFFFFFC0007FFFFF80003FFFFF8A
:1010B00080001FFFFF00000FFFFE000007FFF80089
:1010C0000003FFF00000007F80000000000000002F
:1010D0000000000000000000000000000000000010
:1010E00000000000000000000000F80000001FFFEA
:1010F000C000007FFFF00001FFFFFC0007FE03FFC0
:10110000000FF0007F803F80000FE07E007003F052
:101110003C0FFF81E0183FFFE0C0007FFFF00001BF
:10112000FF07FC0003F800FE0001E0003C0000C0E7
:101130007018000003FE0000000FFF8000001FFF7A
:10114000C000000F8F8000000603000000000000B8
:101150000000000000000000F800000001FC00009A
:101160000001FC00000001FC00000001FC00000088
:1011700000F8000000000000000000000000000077
:10118000000000000000000000000000000000005F
:10119000000003C0701E0003C0701E0003C0701E5C
:1011A0000003C0701E0003C0701E0003C0701E004C
:1011B00003C0701E0003C0001E0003C3FE1E000318
:1011C000C7FF1E0003C7FF1E0003C7FF1E0003C7A3
:1011D000FF1E0003C3FE1E0003C0001E0003C070FC
:1011E0001E000000701E0000007000001FF870005C
:1011F000001FF870FFC01FF870FFC01FF870FFC01D
:10120000000070FFC0000070FFC003C0700000034A
:10121000C070000003C0701E0003C0701E0003C039
:10122000701E0003C0701E0003C0701E000000008E
:1012300000000000000000000000000000000000AE
:10124000000007F00000001FC01E00007F003C00EF
:1012500000FC00781001F800703003F800703007CF
:10126000F800707007FC0078F03FFE00FFF07FFC94
:1012700000FFE07E3801FFC03C1183FF801C03C7E4
:10128000E0000007C7C0000003E380000003E100A6
:10129000000001F000000000F8000000007C0000E9
:1012A00000023E000000071F0000000F8F800000BA
:1012B0001F87C000003F03E000007E01F00000FC3B
:1012C00000F80001F8007C0003F0003E0007E00099
:1012D0003E0003C0001C0001800008000000000068
:1012E00000000000000000000000000000300000CE
:1012F0000000FC00000001FE00000003FF000000F1
:1013000007FF80000007FF8000000F47C000000FAC
:1013100000C000000C00C000000FCFC000000D3264
:10132000C000000CCCC000000C00C000000E01C0CA
:101330000000070180000007038000000387000011
:101340000003FF0000001FFFE000003FFFF000006F
:10135000300030000027FF9000006FFFD800006DC4
:10136000B0D800006DB6D800006C37D800006DB65C
:10137000D80000EDB0DC0000EFFFDC0000F7FFBCA0
:101380000000F0003C000070001C000000000000A5
:10139000000000000000000000000000000000004D
:1013A000000000000000000000000000000000003D
:1013B000000000000000000000000000000000002D
:1013C000000000000000000000000000000000001D
:1013D000000000000000000000000000000000000D
:1013E00000000000000000000000000000000000FD
:1013F00000000000000000000000000000000000ED
:1014000000000000000000000000000000000000DC
:1014100000000000000003E00003E00003E0000320
:10142000E00003E00003E00003E00003E00003E06D
:101430000003E00003E00003E00001E00001C00061
:1014400000000000000001C00003E00003E0000312
:10145000E00001C0000000000000000000000000EB
:10146000000000000000000000000000000000007C
:101470000000000000000000001E78001E78001E22
:1014800078001E78001E78001E78001E78000C3050
:10149000000C30000C3000000000000000000000D4
:1014A000000000000000000000000000000000003C
:1014B000000000000000000000000000000000002C
:1014C000000000000000000000000000000000001C
:1014D000000000000000000000000000000000000C
:1014E0000000000000000000038E00038E00030EC9
:1014F00000071C00071C007FFF007FFF007FFF002C
:101500000E38000E38000E38000E38000E38007FFE
:10151000FF007FFF007FFF001C70001C700038E0A0
:101520000038E00038E0000000000000000000008B
:1015300000000000000000000000000000000000AB
:10154000000000000000000003E00003E00001E0F4
:101550000007FC000FFE001FFE003E0C003C0000D8
:101560003C00003C00003F00001FC0000FF80003DB
:10157000FC0000FE00001F00000F00000F00000F25
:1015800000381F003FFE007FFC001FF80003C00072
:1015900003C00003C00003C0000000000000000002
:1015A000000000000000000000000000000000003B
:1015B000000000000000000000003C07007E0E005C
:1015C000FF1C00E71C00E73800E73800E77000FF69
:1015D000E0007EE0003DC00003C000039E00073F26
:1015E00000077F800E73801C73801C7380387380AB
:1015F000387F80703F00E01E000000000000000007
:1016000000000000000000000000000000000000DA
:1016100000000000000000000000000000000000CA
:1016200000000007C0000FF0001FF8003C78003CED
:1016300078003C78003C78001EF0001FE0000FC8E6
:10164000001F8F003FCE0039EE0071FE0070FE00DB
:10165000707C00703C00787E003FFE001FFF00079A
:10166000E300000000000000000000000000000097
:10167000000000000000000000000000000000006A
:1016800000000000000003C00003C00003C000030E
:10169000C00003C00003C00003C00001C0000180FF
:1016A00000018000000000000000000000000000B9
:1016B000000000000000000000000000000000002A
:1016C000000000000000000000000000000000001A
:1016D000000000000000000000000000000000000A
:1016E00000000000000000000000000000100000EA
:1016F000380000FC0001F80001F00003E00007C022
:10170000000780000F80000F00000F00001E000087
:101710001E00001E00001E00001E00001E00001E15
:1017200000001E00000F00000F00000F00000780E7
:101730000007C00003C00003E00001F80000FC0047
:101740000038000010000000000000000000000051
:1017500000000000000400000E00001F80000FC009
:101760000007C00003E00001F00000F00000F800F6
:10177000007800007800003C00003C00003C0000C5
:101780003C00003C00003C00003C00003C000078B5
:101790000000780000780000F00000F00001E00098
:1017A00003E00007C0001F80000E000004000000DE
:1017B0000000000000000000000000000000000029
:1017C0000000000000000001E00001E00019E2005C
:1017D0001CEE003EDF003FFF000FFC0003F000079F
:1017E000F8000F3C001F3E000E1C00061000000019
:1017F00000000000000000000000000000000000E9
:1018000000000000000000000000000000000000D8
:1018100000000000000000000000000000000000C8
:1018200000000000000000000000000000000000B8
:1018300000000000000000000000000000000001A7
:10184000C00001C00001C00001C00001C00001C013
:10185000003FFE003FFE003FFE0001C00001C0004F
:1018600001C00001C00001C00001C0000000000074
:101870000000000000000000000000000000000068
:101880000000000000000000000000000000000058
:101890000000000000000000000000000000000048
:1018A0000000000000000000000000000000000038
:1018B0000000000000000000000000000000000028
:1018C00000000000000001E00003F00003F000034E
:1018D000F00003F00001F00000F00001E00003E080
:1018E000000FC0000F80000E00000000000000008C
:1018F00000000000000000000000000000000000E8
:1019000000000000000000000000000000000000D7
:1019100000000000000000000000000000000000C7
:101920000FF8000FF8000FF8000FF800000000009B
:1019300000000000000000000000000000000000A7
:101940000000000000000000000000000000000097
:101950000000000000000000000000000000000087
:101960000000000000000000000000000000000077
:101970000000000000000000000000000000000067
:101980000000000000000000000000000000000057
:10199000000000000000000003C00007E00007E0B6
:1019A0000007E00007E00003C000000000000000A6
:1019B0000000000000000000000000000000000027
:1019C0000000000000000000000000001E00003EBB
:1019D00000003C00003C00007C0000780000780023
:1019E00000780000F00000F00000F00001E00001CD
:1019F000E00001E00003E00003C00003C00007C0F6
:101A0000000780000780000780000F00000F000023
:101A10000F00001E00001E00001E00003C00003CE5
:101A200000003C000000000000000000000000007A
:101A30000000000000000000000000000003E000C3
:101A40000FF8001FFC003E3C003C1E003C1E0078CE
:101A50000E00780F00798F007BCF007BCF007BCF0B
:101A600000798F00780F00780E003C1E003C1E00AD
:101A70003E3C001FFC000FF80003E00000000000E7
:101A80000000000000000000000000000000000056
:101A90000000000000000000000000000000000046
:101AA00000000000000000700000F00003F0000FD4
:101AB000F0003FF0003FF0001EF00018F00000F0D2
:101AC0000000F00000F00000F00000F00000F00066
:101AD00000F00000F00000F00000F0000FFF000F29
:101AE000FF000FFF000000000000000000000000E9
:101AF00000000000000000000000000000000000E6
:101B000000000000000000000000000000000007CE
:101B1000E0001FF8003FFC001C3E00081E00001EF5
:101B200000001E00003E00003C00007C0001F800A8
:101B300003F00007E0000FC0000F80001F00001E30
:101B400000003C00003FFF003FFF003FFF0000009F
:101B50000000000000000000000000000000000085
:101B60000000000000000000000000000000000075
:101B700000000000000000000FC0007FF0007FF8B0
:101B800000307C00003C00003C00003C00003C00B9
:101B900000780007F00007F00007FC00007C000060
:101BA0001E00001E00001E00001E00303C007FFCD6
:101BB000007FF8001FE000000000000000000000AF
:101BC0000000000000000000000000000000000015
:101BD0000000000000000000000000000000000005
:101BE00000003C00007C0000FC0001FC0001FC0047
:101BF00003FC0007BC000F3C000F3C001E3C001C17
:101C00003C003C3C00783C007FFF007FFF007FFFF2
:101C100000003C00003C00003C00003C00003C0098
:101C200000000000000000000000000000000000B4
:101C300000000000000000000000000000000000A4
:101C4000000000000000000000000FFC000FFC007E
:101C50000FFC000E00000E00001E00001E00001F02
:101C6000C0001FF0001FF80000FC00003E00001E36
:101C700000001E00001E00001E00001E00207C0050
:101C80007FF8007FF0003FC000000000000000006F
:101C90000000000000000000000000000000000044
:101CA0000000000000000000000000000000000034
:101CB000000000003C0001FC0003FC0007E0000FF6
:101CC00000001E00001E00001C00003FF0003FFC52
:101CD000003FFC003C3E003C1E003C1E003C1E0041
:101CE0003C1E001E1E001E3C001FFC000FF80003DF
:101CF000E000000000000000000000000000000004
:101D000000000000000000000000000000000000D3
:101D10000000000000000000000000003FFE003F47
:101D2000FE003FFE00001E00003C0000780000782E
:101D30000000F00000F00001E00001E00001C00040
:101D400003C00003C0000780000780000780000771
:101D500000000F00000F00000F0000000000000056
:101D60000000000000000000000000000000000073
:101D70000000000000000000000000000000000063
:101D8000000000000007E0000FF8001FFC003C3ED0
:101D900000381E00381E00381E003C1E003F3C006C
:101DA0001FF8000FF0001FFC003CFE007C1F0078B5
:101DB0000F00780F00780F007C1F003FFE001FFC13
:101DC0000007F0000000000000000000000000001C
:101DD0000000000000000000000000000000000003
:101DE000000000000000000000000000000003E010
:101DF000000FF8001FFC001E3C003C3E003C1E0093
:101E00003C1E003C1E003C1F003E1F001FFE001F2A
:101E1000FE0007FE00001E00003C00007C0000F8F1
:101E20000003F0001FE0001FC0001E0000000000C3
:101E300000000000000000000000000000000000A2
:101E40000000000000000000000000000000000092
:101E50000000000000000000000000000000000082
:101E600000000000000003C00007E00007E00007DA
:101E7000E00007E00003C0000000000000000000D8
:101E80000000000003C00007E00007E00007E000DA
:101E900007E00003C0000000000000000000000098
:101EA0000000000000000000000000000000000032
:101EB0000000000000000000000000000000000022
:101EC000000000000000000000000000000000030F
:101ED000C00007E00007E00007E00007E00003C0E3
:101EE0000000000000000000000000000001E00011
:101EF00003F00003F00003F00003F00001F0000025
:101F0000F00001E00003E0000FC0000F80000E00B1
:101F100000000000000000000000000000000000C1
:101F200000000000000000000000000000000000B1
:101F30000000000000000000000200001E00007F02
:101F40000003FF000FFC003FE0003F80003C00006A
:101F50003F80003FE0000FFC0001FF00007F000019
:101F60001E00000200000000000000000000000051
:101F70000000000000000000000000000000000061
:101F80000000000000000000000000000000000051
:101F90000000000000000000000000000000000041
:101FA000000000000000007FFF007FFF007FFF00B7
:101FB0000000000000000000007FFF007FFF007FA6
:101FC000FF00000000000000000000000000000012
:101FD0000000000000000000000000000000000001
:101FE00000000000000000000000000000000000F1
:101FF00000000000000000000000000000000000E1
:10200000000000000000000000002000003C000074
:102010007F00007FE0001FF80003FF0000FF0000CA
:102020001F0000FF0003FF001FF8007FE0007F009B
:10203000003C000020000000000000000000000044
:102040000000000000000000000000000000000090
:102050000000000000000000000000000000000080
:10206000000000000FF0003FF8001FFC00183E00C9
:10207000001E00001E00001E00007C0000FC00018D
:10208000F80003F00007C00007C000078000000050
:102090000000000003800007C00007C00007C00068
:1020A00003800000000000000000000000000000AD
:1020B0000000000000000000000000000000000020
:1020C0000000000000000000000000000001F0001F
:1020D00007FC000FFE001E0E001C0700380700382A
:1020E0007F0038FF0071FF0073C70073870073879C
:1020F0000073870073870073870073870071C700C0
:1021000071FF0038FF00387F003C00001C00001FFA
:1021100000000FFE0007FE0001FE000000000000AE
:1021200000000000000000000000000000000000AF
:1021300000000000000003E00003F00003F00007CF
:10214000F0000770000778000F78000F38000E3C91
:10215000001E3C001E3C001E3E003E1E003FFE00D6
:102160003FFE007FFF007C0F00780F00780F00F823
:102170000F80F80F80000000000000000000000049
:10218000000000000000000000000000000000004F
:102190000000000000000000000000000000003F00
:1021A000E0003FF8003FFC003C3E003C1E003C1EAF
:1021B000003C1E003C1E003C3C003FF8003FF80085
:1021C0003FFE003C1E003C0F003C0F003C0F003C5B
:1021D0000F003C1E003FFE003FFC003FF0000000EF
:1021E00000000000000000000000000000000000EF
:1021F00000000000000000000000000000000000DF
:10220000000000000000000001F80007FE000FFFC2
:10221000001F06003E02003C00003C000078000069
:1022200078000078000078000078000078000078DE
:1022300000007C00003C00003E00001F02000FFE7A
:102240000007FF0001FC000000000000000000008B
:10225000000000000000000000000000000000007E
:10226000000000000000000000000000000000006E
:10227000003FC0003FF0003FFC003C7C003C1E00E3
:102280003C1E003C0F003C0F003C0F003C0F003C8C
:102290000F003C0F003C0F003C0F003C1F003C1E99
:1022A000003C3E003C7C003FF8003FF0003FC00097
:1022B000000000000000000000000000000000001E
:1022C000000000000000000000000000000000000E
:1022D000000000000000000000003FFE003FFE0084
:1022E0003FFE003C00003C00003C00003C00003C85
:1022F00000003C00003FFC003FFC003FFC003C00B5
:10230000003C00003C00003C00003C00003C0000A1
:102310003FFF003FFF003FFF000000000000000003
:1023200000000000000000000000000000000000AD
:10233000000000000000000000000000000000009D
:102340000000003FFE003FFE003FFE003C00003C5E
:1023500000003C00003C00003C00003C00003FFC52
:10236000003FFC003FFC003C00003C00003C000043
:102370003C00003C00003C00003C00003C00003CF5
:10238000000000000000000000000000000000004D
:10239000000000000000000000000000000000003D
:1023A00000000000000000000000000001FF000726
:1023B000FF000FFE001F02003E00003C00003C003A
:1023C00000780000780000780000780F00780F0097
:1023D000780F00780F007C0F003C0F003E0F001FAD
:1023E0000F000FFF0007FF0001FF000000000000CA
:1023F00000000000000000000000000000000000DD
:1024000000000000000000000000000000000000CC
:1024100000000000003C1E003C1E003C1E003C1E54
:10242000003C1E003C1E003C1E003C1E003C1E00EA
:102430003FFE003FFE003FFE003C1E003C1E003CF5
:102440001E003C1E003C1E003C1E003C1E003C1EAC
:10245000003C1E0000000000000000000000000022
:10246000000000000000000000000000000000006C
:1024700000000000000000000000000000003FFF1E
:10248000003FFF003FFF0001E00001E00001E0002D
:1024900001E00001E00001E00001E00001E00001D6
:1024A000E00001E00001E00001E00001E00001E0E7
:1024B0000001E0003FFF003FFF003FFF0000000081
:1024C000000000000000000000000000000000000C
:1024D00000000000000000000000000000000000FC
:1024E000000000000000000FFE000FFE000FFE00C5
:1024F000001E00001E00001E00001E00001E000046
:102500001E00001E00001E00001E00001E00001E17
:1025100000001E00001E00203E00387C007FFC00F2
:102520007FF8000FE0000000000000000000000045
:10253000000000000000000000000000000000009B
:10254000000000000000000000000000000000008B
:102550003C0F003C1E003C1E003C3C003C78003C14
:1025600078003CF0003DE0003FE0003FC0003FE06D
:10257000003FE0003DF0003CF8003C7C003C3C00AB
:102580003C1E003C1F003C0F003C0F003C0780003D
:10259000000000000000000000000000000000003B
:1025A000000000000000000000000000000000002B
:1025B0000000000000000000003C00003C00003C67
:1025C00000003C00003C00003C00003C00003C00DF
:1025D000003C00003C00003C00003C00003C0000CF
:1025E0003C00003C00003C00003C00003C00003F80
:1025F000FF003FFF003FFF00000000000000000060
:1026000000000000000000000000000000000000CA
:1026100000000000000000000000000000000000BA
:1026200000003C1E003C1E003E3E003E3E003E3E82
:10263000003E3E003F7E003F7E003B6E003BEF00D1
:102640007BEF007BEF0079CF0079CF00780F007827
:102650000F00780F00780F00780F00780F00780FC8
:10266000000000000000000000000000000000006A
:10267000000000000000000000000000000000005A
:1026800000000000000000000000003C1E003C1E96
:10269000003E1E003E1E003F1E003F1E003F9E00EB
:1026A0003F9E003D9E003DDE003DDE003CDE003CE6
:1026B000FE003C7E003C7E003C7E003C3E003C3EFA
:1026C000003C1E003C1E003C1E00000000000000FC
:1026D00000000000000000000000000000000000FA
:1026E00000000000000000000000000000000000EA
:1026F0000000000003E0000FF8001FFC003E3E0059
:102700003C1E003C1E00780F00780F00780F007808
:102710000F00780F00780F00780F00780F00780F07
:10272000003C1E003C1E003E3E001FFC000FF80057
:1027300003E00000000000000000000000000000B6
:102740000000000000000000000000000000000089
:10275000000000000000000000000000003FF0004A
:102760003FFC003FFE003C3E003C1F003C0F003C95
:102770000F003C0F003C0F003C1F003E3E003FFEA0
:10278000003FFC003FE0003C00003C00003C00003B
:102790003C00003C00003C00003C00000000000049
:1027A0000000000000000000000000000000000029
:1027B0000000000000000000000000000000000019
:1027C00000000000000003E0000FF8001FFC003EC6
:1027D0003E003C1E003C1E00780F00780F00780F72
:1027E00000780F00780F00780F00780F00780F0046
:1027F000780F003C1E003C1E003E3E001FFC000FF8
:10280000F80007F00001C00001F80000FF00007EA2
:1028100000000E00000000000000000000000000AA
:102820000000000000000000000000000000003F69
:10283000E0003FF8003FFC003C7C003C1E003C1EDA
:10284000003C1E003C1E003C1E003C7C003FFC0087
:102850003FF0003FF0003CF0003C78003C78003C4A
:102860003C003C3C003C1E003C1E003C0F000000B5
:102870000000000000000000000000000000000058
:102880000000000000000000000000000000000048
:10289000000000000000000003F8000FFE001FFC15
:1028A000003E04003C00003C00003C00003E0000F4
:1028B0001F80001FF00007FC0001FE00003E00002A
:1028C0001F00000F00000F00200F00381F007FFEC8
:1028D000007FFC000FF0000000000000000000007E
:1028E00000000000000000000000000000000000E8
:1028F00000000000000000000000000000000000D8
:10290000007FFF807FFF807FFF8001E00001E0000B
:1029100001E00001E00001E00001E00001E0000151
:10292000E00001E00001E00001E00001E00001E062
:102930000001E00001E00001E00001E00001E00032
:102940000000000000000000000000000000000087
:102950000000000000000000000000000000000077
:1029600000000000000000000000780F00780F0059
:10297000780F00780F00780F00780F00780F00783C
:102980000F00780F00780F00780F00780F00780F95
:1029900000780F00780F00780F00780F003C1E00C1
:1029A0003FFE001FFC0007F00000000000000000D8
:1029B0000000000000000000000000000000000017
:1029C0000000000000000000000000000000000007
:1029D000000000F00F00F81F00781E00781E00783D
:1029E0001E00781E007C3E003C3C003C3C003C3C11
:1029F000001C38001E78001E78001E78000E700043
:102A00000FF0000FF00007E00007E00007E0000310
:102A1000C0000000000000000000000000000000F6
:102A200000000000000000000000000000000000A6
:102A3000000000000000000000000000780F007897
:102A40000F00780F00780F00780F00780F00780FD4
:102A50000079CF0079CF007BEF007BEF007BEF00A8
:102A60003B6E003F7E003F7E003E3E003E3E003E0D
:102A70003E003C1E003C1E003C1E0000000000000A
:102A80000000000000000000000000000000000046
:102A90000000000000000000000000000000000036
:102AA0000000000000780F803C1F003C1E001E3E0E
:102AB000001E3C000F7C000F780007F00007F000BC
:102AC00003E00003E00007F00007F8000F78001FA4
:102AD0007C001E3C003E3E003C1E007C1F00780F28
:102AE00000F80F800000000000000000000000005F
:102AF00000000000000000000000000000000000D6
:102B000000000000000000000000000000007C0F3A
:102B1000803C0F003C0F003E1F001E1E001E1E00CA
:102B20000F3C000F3C0007F80007F80003F000031B
:102B3000F00001E00001E00001E00001E00001E040
:102B40000001E00001E00001E00001E00000000001
:102B50000000000000000000000000000000000075
:102B60000000000000000000000000000000000065
:102B7000000000000000003FFE003FFE003FFE009E
:102B8000003E00007C0000780000F80000F000012A
:102B9000F00001E00003C00007C0000780000F80C4
:102BA000000F00001F00001E00003E00003FFE005E
:102BB0003FFE003FFE00000000000000000000009B
:102BC0000000000000000000000000000000000005
:102BD000000000000000000FF8000FF8000FF800E0
:102BE0000F00000F00000F00000F00000F00000F8B
:102BF00000000F00000F00000F00000F00000F008A
:102C0000000F00000F00000F00000F00000F000079
:102C10000F00000F00000F00000F00000F00000F5A
:102C200000000F00000F00000FF8000FF8000FF871
:102C30000000000000000000000000000000000094
:102C40003C00003E00001E00001E00001E00000FA1
:102C500000000F00000F00000780000780000780C1
:102C60000007C00003C00003C00003C00001E00073
:102C700001E00001E00001F00000F00000F00000C1
:102C8000F000007800007800007800003C00003C74
:102C900000003C00003E00001E000000000000009C
:102CA0000000000000000000000FF8000FF8000F07
:102CB000F8000078000078000078000078000078C4
:102CC00000007800007800007800007800007800AC
:102CD000007800007800007800007800007800009C
:102CE0007800007800007800007800007800007814
:102CF000000078000078000078000FF8000FF8005E
:102D00000FF80000000000000000000000000000BC
:102D1000000000000000000000000003E00003E0ED
:102D20000007F0000F78001F7C001E3C003C1E00D6
:102D30007C1F00780F8018040000000000000000D5
:102D40000000000000000000000000000000000083
:102D50000000000000000000000000000000000073
:102D60000000000000000000000000000000000063
:102D70000000000000000000000000000000000053
:102D80000000000000000000000000000000000043
:102D90000000000000000000000000000000000033
:102DA0000000000000000000000000000000000023
:102DB0000000000000000000000000000000000013
:102DC000000000000000000000000000FFFF80FF86
:102DD000FF80FFFF800000000000000000000000F6
:102DE0000000000001000003800007C00003F000A5
:102DF00000F00000200000000000000000000000C3
:102E000000000000000000000000000000000000C2
:102E100000000000000000000000000000000000B2
:102E200000000000000000000000000000000000A2
:102E30000000000000000000000000000000000092
:102E40000000000000000000000000000000000082
:102E50000000000000000000000000000000000072
:102E600000000000000FF0000FF8000FFC00083E0B
:102E700000001E00001E0007FE001FFE001FFE00D7
:102E80003E1E003C1E003C1E003E1E001FFE001F9A
:102E9000FE0007FC00000000000000000000000031
:102EA0000000000000000000000000000000000022
:102EB0000000000000000000003C00003C00003C5E
:102EC00000003C00003C00003C00003C00003DF0E5
:102ED000003FFC003FFE003E3E003C1F003C0F0058
:102EE0003C0F003C0F003C0F003C0F003C0F003C2F
:102EF0001E003C3E003FFC003FF8001FE0000000C9
:102F000000000000000000000000000000000000C1
:102F100000000000000000000000000000000000B1
:102F200000000000000000000000000000000000A1
:102F30000000000000000001FE0007FF000FFE007F
:102F40001F80001E00003C00003C00003C00003CD4
:102F500000003C00003C00001E00001F00000FFFAE
:102F60000007FF0001FF000000000000000000005B
:102F70000000000000000000000000000000000051
:102F80000000000000000000000000001E00001E05
:102F900000001E00001E00001E00001E00001E009B
:102FA00007DE001FFE003FFE003C3E007C1E007856
:102FB0001E00781E00781E00781E00781E00781E05
:102FC000003C1E003E1E001FFE000FFE0007FC001E
:102FD00000000000000000000000000000000000F1
:102FE00000000000000000000000000000000000E1
:102FF00000000000000000000000000000000000D1
:1030000000000000000000000003F0000FFC001FA3
:10301000FC003E3E003C1F00780F00780F007FFF51
:10302000007FFF007FFF007800003C00003E0400AE
:103030001FFE000FFE0003FC000000000000000067
:103040000000000000000000000000000000000080
:1030500000000000000000000000000000007F00F1
:1030600001FF8003FF8007C1000780000780000781
:1030700080007FFE007FFE007FFE0007800007804B
:10308000000780000780000780000780000780009D
:103090000780000780000780000780000780000786
:1030A00080000000000000000000000000000000A0
:1030B0000000000000000000000000000000000010
:1030C0000000000000000000000000000000000000
:1030D000000000000000000000000003FC000FFEE4
:1030E000001FFE003E1E007C1E00781E00781E00A1
:1030F000781E00781E00781E007C1E003C1E003FDB
:10310000FE001FFE0007DE00001E00001E00003E45
:1031100000303C003FFC003FF8001FE000000000D2
:103120000000000000000000000000000000003C63
:1031300000003C00003C00003C00003C00003C0063
:10314000003C00003FF0003FF8003FFC003C3C002A
:103150003C1E003C1E003C1E003C1E003C1E003C71
:103160001E003C1E003C1E003C1E003C1E003C1E7F
:10317000003C1E00000000000000000000000000F5
:10318000000000000000000000000000000000003F
:1031900000000000000000000700000F80000F800A
:1031A000000F80000700000000000000003FC0008A
:1031B0003FC0003FC00003C00003C00003C00003C5
:1031C000C00003C00003C00003C00003C00003C070
:1031D0000003E10001FF0001FF00007E000000008D
:1031E00000000000000000000000000000000000DF
:1031F00000000000000000000000000000000000CF
:103200000000700000F80000F80000F800007000F6
:103210000000000000000FFC000FFC000FFC00008D
:103220003C00003C00003C00003C00003C00003C36
:1032300000003C00003C00003C00003C00003C0062
:10324000003C00003C00003C00003C00187C001FDB
:10325000F8003FF0000FE000000000000000000058
:10326000000000000000000000003C00003C0000E6
:103270003C00003C00003C00003C00003C00003CE6
:103280001F003C3E003C7C003CF8003CF0003DE070
:10329000003FC0003FC0003FE0003DF0003CF800B0
:1032A0003C7C003C3E003C1E003C1F003C0F80006C
:1032B000000000000000000000000000000000000E
:1032C00000000000000000000000000000000000FE
:1032D0000000007F80007F80007F80000780000763
:1032E00080000780000780000780000780000780BB
:1032F000000780000780000780000780000780002B
:1033000007800007800007800007800007C20003D5
:10331000FF0001FF0000FE000000000000000000B0
:10332000000000000000000000000000000000009D
:10333000000000000000000000000000000000008D
:10334000000000000000000000000000000000007D
:10335000003F3C007FFE007FFF0073CF0071C7007D
:1033600071C70071C70071C70071C70071C70070D5
:1033700007007007007007007007007007007007F3
:10338000000000000000000000000000000000003D
:10339000000000000000000000000000000000002D
:1033A000000000000000000000000000000000001D
:1033B000000000000000000000001FF0003FF800C7
:1033C0003FFC003C3C003C1E003C1E003C1E003C00
:1033D0001E003C1E003C1E003C1E003C1E003C1E0D
:1033E000003C1E003C1E003C1E00000000000000CF
:1033F00000000000000000000000000000000000CD
:1034000000000000000000000000000000000000BC
:1034100000000000000000000000000000000000AC
:1034200000000003E0000FF8001FFC003E3E003CDF
:103430001E00780F00780F00780F00780F00780FCB
:1034400000780F003C1E003E3E001FFC000FF800FD
:1034500003E0000000000000000000000000000089
:10346000000000000000000000000000000000005C
:10347000000000000000000000000000000000004C
:103480000000000000000000000000001FE0003FFE
:10349000F8003FFC003C3E003C1E003C0F003C0F8F
:1034A000003C0F003C0F003C0F003C0F003C1E0096
:1034B0003C3E003FFE003FFC003DF0003C00003C75
:1034C00000003C00003C00003C00003C000000000C
:1034D00000000000000000000000000000000000EC
:1034E00000000000000000000000000000000000DC
:1034F000000000000003FC000FFE001FFE003E1E47
:10350000003C1E00781E00781E00781E00781E0009
:10351000781E00781E007C1E003E3E003FFE001F0D
:10352000FE0007DE00001E00001E00001E00001E40
:1035300000001E00001E000000000000000000004F
:10354000000000000000000000000000000000007B
:10355000000000000000000000000000000003FE6A
:10356000001FFE001FFE001E00001E00001E0000C7
:103570001E00001E00001E00001E00001E00001E97
:1035800000001E00001E00001E00001E00000000C3
:10359000000000000000000000000000000000002B
:1035A000000000000000000000000000000000001B
:1035B000000000000000000000000000000000000B
:1035C0000000000000000007F8000FFC001FFC00D6
:1035D0003C08003C00003E00003FC0001FF0000F10
:1035E000FC0001FE00003E00001E00381E003FFCF3
:1035F000003FFC000FF00000000000000000000091
:1036000000000000000000000000000000000000BA
:1036100000000000000000000000000000000000AA
:1036200000018000078000078000078000078000FD
:103630007FFF007FFF007FFF0007800007800007FB
:103640008000078000078000078000078000078057
:103650000007800007C00003FF0003FF0000FE001A
:10366000000000000000000000000000000000005A
:10367000000000000000000000000000000000004A
:10368000000000000000000000000000000000003A
:103690000000000000000000003C1E003C1E003C3A
:1036A0001E003C1E003C1E003C1E003C1E003C1E3A
:1036B000003C1E003C1E003C1E003C1E001E1E0066
:1036C0001FFE000FFE0007F80000000000000000D1
:1036D00000000000000000000000000000000000EA
:1036E00000000000000000000000000000000000DA
:1036F00000000000000000000000000000000000CA
:103700000000780F00780F00781E003C1E003C1E61
:10371000003C3C001E3C001E7C001E78000F780020
:103720000FF0000FF00007E00007E00003C0000307
:10373000C0000000000000000000000000000000C9
:103740000000000000000000000000000000000079
:103750000000000000000000000000000000000069
:103760000000000000000000000000F00780F007EB
:1037700080F00780F1C78071C70071E70073E70030
:1037800073E7007B6F007B6F003F7E003F7E003E53
:103790003E003E3E001E3C001C1C000000000000DD
:1037A0000000000000000000000000000000000019
:1037B0000000000000000000000000000000000009
:1037C00000000000000000000000000000000000F9
:1037D00000000000781F003C1E001E3C001E7C0004
:1037E0000F780007F00007F00003E00003E0000797
:1037F000F0000FF8000F78001E3C003C3E003C1E1D
:1038000000781F0000000000000000000000000021
:1038100000000000000000000000000000000000A8
:103820000000000000000000000000000000000098
:1038300000000000000000000000000000780F0001
:10384000780F003C1E003C1E003C1E001E1E001E89
:103850003C001E3C000F3C000F78000FF80007F8FA
:103860000007F00003F00003F00003E00003E000B5
:1038700007C0007FC0007F80007F00007E00000046
:103880000000000000000000000000000000000038
:103890000000000000000000000000000000000028
:1038A0000000000000001FFC001FFC001FFC0000C7
:1038B0007C0000F80001F00001E00003E00007C018
:1038C000000F80000F80001F00001F00003FFE005F
:1038D0003FFE003FFE00000000000000000000006E
:1038E00000000000000000000000000000000000D8
:1038F0000000000000000000FE0001FE0001FE00CC
:1039000003E00003C00003C00003C00003C00003C5
:10391000C00003C00003C00003C00003C000078054
:10392000003F00003C00003F800007800003C00013
:1039300003C00003C00003C00003C00003C00003B5
:10394000C00003C00003E00003FE0001FE0000FE13
:103950000000000000000000000000000000000067
:1039600003E00003E00003E00003E00003E00003E5
:10397000E00003E00003E00003E00003E00003E0F8
:103980000003E00003E00003E00003E00003E000C8
:1039900003E00003E00003E00003E00003E00003B5
:1039A000E00003E00003E00003E00003E00003E0C8
:1039B0000003E00003E00003E0000000000000005E
:1039C0000000000000000000003F00003FC0003F7A
:1039D000E00003E00001E00001E00001E00001E0A0
:1039E0000001E00001E00001E00001E00001E00072
:1039F00000F00000FE00001E0000FE0000F00001CC
:103A0000E00001E00001E00001E00001E00001E071
:103A10000001E00001E00003E0003FE0003FC000E3
:103A20003F800000000000000000000000000000D7
:103A30000000000000000000000000000000000086
:103A40000000000000000000000000000000000076
:103A50000000000000000000000000000000000066
:103A60000000000000000000000E000E000E000E1E
:103A7000000E000E000E000E000E000E00000000F2
:103A8000000E000E000E000000000000000000000C
:103A900000000000000000000000000000000039ED
:103AA000C039C039C039C039C039C01080000000E9
:103AB0000000000000000000000000000000000006
:103AC00000000000000000000000000000000000F6
:103AD000000000000000000000000000000E700E5A
:103AE000700E701CE0FFF8FFF8FFF839C0FFF8FF18
:103AF000F8FFF839C0738073807380000000000005
:103B000000000000000000000000000000000000B5
:103B1000000000070007000F801FE03FE03800387A
:103B2000003F001FC00FE001F0007020707FF07FA9
:103B3000E01FC007000700070000000000000000B1
:103B40000000000000000000000000000000000075
:103B5000004830FC60CCC0CCC0CD80FF007B0006AC
:103B6000000CF00DF819983198319861F8C0F00008
:103B70000000000000000000000000000000000045
:103B800000000000000000000000000F001FC03F08
:103B9000C039C039C01F801E703F70377073F0711C
:103BA000E071E07FF03FF01F3800000000000000EF
:103BB0000000000000000000000000000000000005
:103BC000000E000E000E000E000E000E000400009D
:103BD00000000000000000000000000000000000E5
:103BE00000000000000000000000000000000000D5
:103BF00000000000000000000000C001E003C0075A
:103C0000800F001E001C001C0038003800380038EF
:103C100000380038003C001C001E000E00070003A6
:103C2000C001E000C0000000000000000000000033
:103C300000000018003C001E000F00078003C001B8
:103C4000C001C000E000E000E000E000E000E001B2
:103C5000E001C003C0038007001E003C0018000004
:103C60000000000000000000000000000000000054
:103C70000000000700070017403AE03FE005000D94
:103C8000801DC005000000000000000000000000D2
:103C90000000000000000000000000000000000024
:103CA0000000000000000000000000000000000014
:103CB00000000007000700070007007FF07FF07F8B
:103CC000F0070007000700070000000000000000E8
:103CD00000000000000000000000000000000000E4
:103CE00000000000000000000000000000000000D4
:103CF0000000000000000000000000000006000FAF
:103D0000000F000700030006001C00180000000060
:103D100000000000000000000000000000000000A3
:103D20000000000000000000000000000000001F74
:103D3000C01FC01FC0000000000000000000000005
:103D40000000000000000000000000000000000073
:103D50000000000000000000000000000000000063
:103D60000000000000000000000000000000000053
:103D70000006000F000F0006000000000000000019
:103D80000000000000000000000000000000000033
:103D90000000E001E001C001C003C0038003800710
:103DA000800700070007000E000E000E001C001C1C
:103DB000001C0038003800380070000000000000CF
:103DC0000000000000000000000000000000000FE4
:103DD000801FC03FE038E070707770777077707048
:103DE000707070707038E03FE01FC00F80000000FE
:103DF00000000000000000000000000000000000C3
:103E0000000000000000000000038007801F803FCA
:103E1000801B800380038003800380038003800372
:103E2000801FF01FF01FF0000000000000000000E5
:103E30000000000000000000000000000000000082
:103E40000000001F803FC07FE031E000E000E001A3
:103E5000C0038007001C00380030007FF07FF07F37
:103E6000F000000000000000000000000000000062
:103E7000000000000000000000000000001F807F24
:103E8000C07FE020E000E000E007C007C007E000DE
:103E9000F0007020F07FF07FE03F80000000000025
:103EA0000000000000000000000000000000000012
:103EB0000000000000000001C003C007C00FC01DCB
:103EC000C019C039C071C07FF07FF07FF001C00120
:103ED000C001C001C00000000000000000000000A0
:103EE00000000000000000000000000000000000D2
:103EF000001FE01FE01FE0380038003F003FC03FD8
:103F0000E001F00070007000F07FE07FC03F8000B3
:103F100000000000000000000000000000000000A1
:103F2000000000000000000000000001E007E01FAA
:103F3000E01E00380077007FC07FE078F07070707E
:103F40007078F03FE03FE00F8000000000000000CC
:103F50000000000000000000000000000000000061
:103F600000000000007FE07FE07FE000E001C00390
:103F7000800380070007000E000E000E001C001CCE
:103F8000001C000000000000000000000000000015
:103F90000000000000000000000000000000000F12
:103FA000C03FE03FF07070707038E03FC01FC03914
:103FB000E07070707078F07FF03FE00F80000000DC
:103FC00000000000000000000000000000000000F1
:103FD0000000000000000000000F803FC03FE078BC
:103FE000F0707070707CF03FF01FF0076000E0032D
:103FF000C03FC03F003C0000000000000000000087
:1040000000000000000000000000000000000000B0
:1040100000000000000000000006000F000F000676
:1040200000000000000000000006000F000F000666
:104030000000000000000000000000000000000080
:104040000000000000000000000000000000000070
:1040500000000006000F000F000600000000000036
:1040600000000006000F000F000700030006001C00
:104070000018000000000000000000000000000028
:10408000000000000000000000000000000020010F
:10409000F007F01FC07E0078007E001FC007F0010F
:1040A000F000200000000000000000000000000000
:1040B0000000000000000000000000000000000000
:1040C00000000000000000000000007FF07FF07F93
:1040D000F0000000007FF07FF07FF00000000000A3
:1040E00000000000000000000000000000000000D0
:1040F00000000000000000000000000000000000C0
:104100000020007C007F001FE003F000F003F01FA0
:10411000E07F007C002000000000000000000000A4
:10412000000000000000000000000000000000008F
:1041300000000000000F803FC03FE010E000E00101
:10414000E003C007800F000E00000000000E000E0C
:10415000000E000000000000000000000000000051
:104160000000000000000000000000000000000F40
:10417000803FE030E0607063F0C7F0CFF0CE70CEEB
:1041800070CE70CE70CE70C7F067F073E038001F4D
:10419000F007F00000000000000000000000000038
:1041A00000000000000000000007800F800F800D5D
:1041B000C01DC01DC01CE038E038E03FF07FF07F3C
:1041C000F07070F078F0780000000000000000004F
:1041D00000000000000000000000000000000000DF
:1041E0000000007F807FC07FE070E070E071E07FC2
:1041F000C07FC07FE070F0707070F07FF07FE07F74
:10420000800000000000000000000000000000002E
:104210000000000000000000000000000007E01F98
:10422000F01FF03C2078007000700070007000708B
:104230000078003C203FF01FF007E0000000000085
:10424000000000000000000000000000000000006E
:10425000000000000000007F007FC07FE071E07080
:10426000F07070707070707070707070F071E07FCE
:10427000E07FC07F000000000000000000000000A0
:10428000000000000000000000000000000000002E
:10429000003FE03FE03FE0380038003FE03FE03FD4
:1042A000E038003800380038003FF03FF03FF000C1
:1042B00000000000000000000000000000000000FE
:1042C00000000000000000000000003FF03FF03F51
:1042D000F03800380038003FE03FE03FE038003879
:1042E00000380038003800380000000000000000EE
:1042F00000000000000000000000000000000000BE
:10430000000000000007F01FF03FE03C2078007044
:1043100000700070707070707078703C703FF01FAB
:10432000F007F000000000000000000000000000A6
:10433000000000000000000000000000000000700D
:104340007070707070707070707FF07FF07FF070C0
:1043500070707070707070707070707070000000AD
:10436000000000000000000000000000000000004D
:104370000000000000000000007FC07FC07FC00E72
:10438000000E000E000E000E000E000E000E000EBD
:10439000007FC07FC07FC000000000000000000060
:1043A000000000000000000000000000000000000D
:1043B0000000001FE01FE01FE000E000E000E00060
:1043C000E000E000E000E000E021E07FC07FC01FEF
:1043D00000000000000000000000000000000000DD
:1043E000000000000000000000000000007070707D
:1043F000E071C073C0738077007E007E00778073A9
:104400008071C070E070F0707070380000000000C3
:10441000000000000000000000000000000000009C
:104420000000000000000038003800380038003874
:104430000038003800380038003800380038003FB5
:10444000F03FF03FF000000000000000000000001E
:10445000000000000000000000000000000000005C
:104460000030E038E039E039E03DE07DF07DF07784
:10447000707770777070707070707070707070009E
:10448000000000000000000000000000000000002C
:1044900000000000000000000000007070787078DC
:1044A000707C707C707E707770777073F071F071D3
:1044B000F070F070F070707070000000000000008C
:1044C00000000000000000000000000000000000EC
:1044D00000000000000F801FC03FE038E0707070E7
:1044E000707070707070707070707038E03FE01FA6
:1044F000C00F80000000000000000000000000006D
:104500000000000000000000000000000000007F2C
:10451000807FE07FE070F07070707070F07FE07FFF
:10452000E07F80700070007000700070000000007C
:10453000000000000000000000000000000000007B
:104540000000000000000000000F801FC03FE038A6
:10455000E070707070707070707070707070703823
:10456000E03FE01FC00F80070003F001F000600093
:10457000000000000000000000000000000000003B
:104580000000007F807FE07FE070F07070707070DE
:10459000F07FE07FC07F80738071C070E070E0705A
:1045A000700000000000000000000000000000009B
:1045B000000000000000000000000000000F803F2D
:1045C000E07FE0704070007C003F801FE007E0006B
:1045D000F0007020707FF07FE01F8000000000007E
:1045E00000000000000000000000000000000000CB
:1045F000000000000000007FF07FF07FF007000760
:104600000007000700070007000700070007000772
:10461000000700070000000000000000000000008C
:10462000000000000000000000000000000000008A
:1046300000707070707070707070707070707070EA
:104640007070707070707078F03FE03FE00F800025
:10465000000000000000000000000000000000005A
:104660000000000000000000000000E070F0F070AA
:10467000E070E070E070E039C039C039C019801FC7
:10468000801F800F000F000F0000000000000000DE
:10469000000000000000000000000000000000001A
:1046A0000000000000707070707070707070707733
:1046B00070777077707D707DF07DF038E038E0388D
:1046C000E030E000000000000000000000000000FA
:1046D000000000000000000000000000000000706A
:1046E000F030E039C019C01F800F800F000F000F9D
:1046F000801F8039C039C070E070E0F0F000000029
:1047000000000000000000000000000000000000A9
:10471000000000000000000000707038E038E03851
:10472000E01DC01DC00D800F8007000700070007B7
:104730000007000700070000000000000000000064
:104740000000000000000000000000000000000069
:104750000000007FE07FE07FE001C003800380076E
:10476000000E000E001C00180038007FF07FF07F64
:10477000F000000000000000000000000000000049
:104780000000000000000000001FC01FC01FC01C70
:10479000001C001C001C001C001C001C001C001C39
:1047A000001C001C001C001C001C001C001FC01F63
:1047B000C01FC0000000000000000000000000005A
:1047C00000000070007800380038003C001C001C1D
:1047D000001E000E000E000F0007000700078003F8
:1047E00080038003C001C001C001E000E0000000C0
:1047F000000000000000000000000000001FC01FBB
:10480000C01FC001C001C001C001C001C001C00182
:10481000C001C001C001C001C001C001C001C00190
:10482000C01FC01FC01FC00000000000000000002B
:10483000000000000000000000000007000F801FC3
:10484000C01DC03DE078F0707830600000000000CE
:104850000000000000000000000000000000000058
:104860000000000000000000000000000000000048
:104870000000000000000000000000000000000038
:104880000000000000000000000000000000000028
:104890000000000000FFF8FFF8FFF8000000000033
:1048A000000000000000000000000004000F0007EE
:1048B0008001000000000000000000000000000077
:1048C00000000000000000000000000000000000E8
:1048D00000000000000000000000000000000000D8
:1048E0000000000000000000000000000000003F89
:1048F000C03FE03FF000701FF03FF07FF07070703D
:10490000707FF03FF01FF00000000000000000008A
:10491000000000000000000000000000000000385F
:104920000038003800380038003BC03FE03FE03C32
:10493000F0387038703870387038F03FE03FC03F62
:1049400080000000000000000000000000000000E7
:104950000000000000000000000000000000000057
:1049600000000007E01FF03FF07C00700070007056
:1049700000700078003FF01FF007F000000000001A
:104980000000000000000000000000000000000027
:1049900000000000E000E000E000E000E01EE03F7A
:1049A000E03FE079E070E070E070E070E078E03FD8
:1049B000E03FE00FE0000000000000000000000009
:1049C00000000000000000000000000000000000E7
:1049D000000000000000000F801FC03FE078F07072
:1049E000707FF07FF07FF070003FE01FE00FC000AD
:1049F00000000000000000000000000000000000B7
:104A00000000000000000003F007F80FF80E000E91
:104A1000007FF07FF07FF00E000E000E000E000E03
:104A2000000E000E000E000E00000000000000004E
:104A30000000000000000000000000000000000076
:104A400000000000000000000000000FE03FE03F19
:104A5000E078E070E070E070E078E03FE03FE01F79
:104A6000E000E021E03FC07FC03F00000000000008
:104A7000000000000000000000000038003800388E
:104A800000380038003FC03FE03FF038F038703861
:104A900070387038703870387038703870000000B6
:104AA0000000000000000000000000000000000006
:104AB00000000000000C001E001E000C0000003F63
:104AC000003F003F0007000700070007000700073E
:104AD0001007F003F001F0000000000000000000EB
:104AE00000000000000000000000000000000001C5
:104AF0008003C003C0018000003FC03FC03FC00131
:104B0000C001C001C001C001C001C001C001C0019D
:104B1000C021C03FC07F801F0000000000000000D7
:104B200000000000000000000038003800380038A5
:104B300000380038F039E039C03B803F003F003F8B
:104B4000803B8039C039E038E038F00000000000D8
:104B50000000000000000000000000000000000055
:104B60000000007E007E007E000E000E000E000E93
:104B7000000E000E000E000E000E000E000E100FB4
:104B8000F007F003E000000000000000000000005B
:104B90000000000000000000000000000000000015
:104BA000000000000000007DE07FF07FF07770776C
:104BB0007077707770707070707070707070700057
:104BC00000000000000000000000000000000000E5
:104BD00000000000000000000000000000000000D5
:104BE000001FC03FE03FF038F03870387038703840
:104BF00070387038703870387000000000000000A5
:104C000000000000000000000000000000000000A4
:104C100000000000000000000000000F801FC03FE7
:104C2000E078F0707070707070707078F03FE01F16
:104C3000C00F800000000000000000000000000025
:104C40000000000000000000000000000000000064
:104C500000000000003F803FC03FE038F03870386F
:104C6000703870387038F03FE03FE03FC0380038AF
:104C700000380038000000000000000000000000C4
:104C80000000000000000000000000000000000F15
:104C9000E01FE03FE078E070E070E070E070E07806
:104CA000E03FE03FE01FE000E000E000E000E00067
:104CB00000000000000000000000000000000000F4
:104CC0000000000000000000000FE03FE03FE0387F
:104CD0000038003800380038003800380038003814
:104CE00000000000000000000000000000000000C4
:104CF00000000000000000000000000000000000B4
:104D00000000001FC03FE07FE0700078003F800F90
:104D1000E000F060707FF07FE01FC0000000000046
:104D20000000000000000000000000000000000083
:104D30000000000000000006000E000E007FF07F63
:104D4000F07FF00E000E000E000E000E000E100F91
:104D5000F007F003E0000000000000000000000089
:104D60000000000000000000000000000000000043
:104D70000000000000000070E070E070E070E07083
:104D8000E070E070E070E078E07FE03FE01FC0009E
:104D90000000000000000000000000000000000013
:104DA0000000000000000000000000000000000003
:104DB00000F07070F070E078E039E039C039C01F61
:104DC000801F800F000F000700000000000000009F
:104DD00000000000000000000000000000000000D3
:104DE0000000000000000000000000E038E038E7AC
:104DF00038E7386730673075F07DF07DE03DE038AA
:104E0000E038E000000000000000000000000000AA
:104E10000000000000000000000000000000000092
:104E2000000000000070F038E01DC01FC00F800FB0
:104E3000000F800F801DC039E030E070700000006E
:104E40000000000000000000000000000000000062
:104E500000000000000000000000000000000070E2
:104E600070707038E038E038E01CC01DC00FC00F13
:104E7000800F80078007000F007E007E007C00000E
:104E80000000000000000000000000000000000022
:104E90000000000000000000003FE03FE03FE001B4
:104EA000C0038007000E000E001C003FE03FE03F03
:104EB000E000000000000000000000000000000012
:104EC00000000000000000000003F007F007F007FA
:104ED00000070007000700070007003E0038003EFB
:104EE0000007000700070007000700070007F0079A
:104EF000F001F000000000000000000000000000D1
:104F00000000000700070007000700070007000770
:104F10000007000700070007000700070007000759
:104F20000007000700070007000700070000000057
:104F3000000000000000000000000000003E003FF4
:104F4000003F0007000700070007000700070003F5
:104F5000E000E003E0070007000700070007000784
:104F6000003F003F003E0000000000000000000085
:104F70000000000000000000000000000000000031
:104F80000000000000000000000000000000000021
:104F90000000000000000000000000000000000011
:104FA0000010001000100010001000100010001081
:104FB00000100000001000000000000000000000D1
:104FC0000000000000000024002400240024000051
:104FD00000000000000000000000000000000000D1
:104FE00000000000000000000000000000000000C1
:104FF00000120012001200FF00240024002400FF11
:1050000000480048004800000000000000000000C8
:1050100000000000000000080008003E00400040C2
:10502000004000380006000100010041003E000879
:105030000008000000000000000000000000000068
:105040000061009200940094006800180016002986
:105050000029004900860000000000000000000058
:105060000000000000000000001C002200220022BE
:10507000001C00190029004700420043003C80004A
:105080000000000000000000000000000000000818
:1050900000080008000800080000000000000000F0
:1050A0000000000000000000000000000000000000
:1050B00000000000000000000004000800100010C4
:1050C0000020002000200020002000200010001000
:1050D00000080004000000000000000000000000C4
:1050E0000010000800040004000200020002000298
:1050F000000200020004000400080010000000008C
:1051000000000000000000000008006B001C0014FC
:105110000036000000000000000000000000000059
:10512000000000000000000000000000000000007F
:10513000000000000000000800080008007F0008D0
:10514000000800080000000000000000000000004F
:10515000000000000000000000000000000000004F
:10516000000000000000000000000000000800082F
:10517000001000000000000000000000000000001F
:10518000000000000000000000000000003C0000E3
:10519000000000000000000000000000000000000F
:1051A00000000000000000000000000000000000FF
:1051B00000000000000000000000000000100000DF
:1051C00000000000000000000000000000000002DD
:1051D000000400040004000800080008001000108B
:1051E00000100020002000200040004000000000CF
:1051F0000000000000000000001C002200410041EF
:10520000004900490041004100410022001C00000B
:10521000000000000000000000000000000000008E
:10522000000800180028000800080008000800080E
:1052300000080008003E0000000000000000000020
:105240000000000000000000003E006100010001BD
:10525000000200040008001000200040007F000051
:10526000000000000000000000000000000000003E
:10527000003C0042000100010002001C000200018D
:1052800000010042003C000000000000000000009F
:10529000000000000000000000020006000A0012EA
:1052A000001200220042007F000200020002000003
:1052B00000000000000000000000000000000000EE
:1052C000003F002000200020003C000200010001FF
:1052D00000010042003C000000000000000000004F
:1052E0000000000000000000000E00100020004040
:1052F000007C00420041004100410022001C0000EF
:10530000000000000000000000000000000000009D
:10531000007F0001000200040004000800080008EB
:10532000001000100010000000000000000000004D
:105330000000000000000000003E0041004100416C
:105340000022003C0022004100410041003E0000DC
:10535000000000000000000000000000000000004D
:10536000001C00220041004100410021001F0001FB
:1053700000020004003800000000000000000000EF
:10538000000000000000000000000000000000001D
:1053900000000010000000000000000000100000ED
:1053A00000000000000000000000000000000000FD
:1053B00000000000000000000000001000000000DD
:1053C00000000000000800080010000000000000BD
:1053D00000000000000000000000000000000003CA
:1053E000000C003000400030000C00030000000002
:1053F00000000000000000000000000000000000AD
:1054000000000000000000000000007F000000001D
:10541000007F00000000000000000000000000000D
:10542000000000000000000000000000000000601C
:1054300000180006000100060018006000000000CF
:10544000000000000000000000000000000000005C
:10545000003C0046000200020006000400080010A4
:10546000001000000010000000000000000000001C
:105470000000000000000000001E00210021004F7D
:1054800000510051005100510051004F0020001008
:10549000000E0000000000000000000000000000FE
:1054A0000008001400140022002200220041007FA6
:1054B00000410080808080000000000000000000AB
:1054C0000000000000000000007C0042004100419C
:1054D0000042007E0042004100410042007C00008A
:1054E00000000000000000000000000000000000BC
:1054F000001E00210020004000400040004000400D
:1055000000200021001E000000000000000000003C
:105510000000000000000000007C0042004200414A
:10552000004100410041004100420042007C000077
:10553000000000000000000000000000000000006B
:10554000003F0020002000200020003E002000201E
:1055500000200020003F00000000000000000000CC
:105560000000000000000000003F0020002000209C
:105570000020003E0020002000200020002000002D
:10558000000000000000000000000000000000001B
:10559000001E00210020004000400040004100416A
:1055A00000210021001F000000000000000000009A
:1055B00000000000000000000041004100410041E7
:1055C0000041007F004100410041004100410000D6
:1055D00000000000000000000000000000000000CB
:1055E000003E000800080008000800080008000845
:1055F00000080008003E000000000000000000005D
:105600000000000000000000003F00010001000158
:10561000000100010001000100010042003C000007
:10562000000000000000000000000000000000007A
:105630000041004200440048005000600050004813
:105640000044004200410000000000000000000093
:1056500000000000000000000020002000200020CA
:10566000002000200020002000200020003F00003B
:10567000000000000000000000000000000000002A
:10568000002200220022005500550055004900412B
:105690000041004100410000000000000000000047
:1056A0000000000000000000004100610071005196
:1056B0000049004900450045004300410041000009
:1056C00000000000000000000000000000000000DA
:1056D000001C002200410041004100410041004106
:1056E00000410022001C000000000000000000003B
:1056F0000000000000000000007C0042004100416A
:1057000000410042007C004000400040004000009A
:105710000000000000000000000000000000000089
:10572000001C0022004100410041004100410041B5
:1057300000410022001C00080004000300000000DB
:105740000000000000000000007C00420041004119
:1057500000410042007C00440042004100408000C3
:105760000000000000000000000000000000000039
:10577000003E0041004000400020001C00020001EB
:1057800000010041003E0000000000000000000099
:105790000000000000000000007F00080008000872
:1057A00000080008000800080008000800080000C1
:1057B00000000000000000000000000000000000E9
:1057C00000410041004100410041004100410041D1
:1057D00000410041003E0000000000000000000009
:1057E0000000000000000000008100810042004233
:1057F0000042004200240024002400180018000089
:105800000000000000000000000000000000000098
:10581000004100410041004100490055005500553C
:105820000063006300410000000000000000000071
:10583000000000000000000000810042002400245D
:1058400000180018001800240042004200810000E7
:105850000000000000000000000000000000000048
:105860000041002200220022001400140008000859
:105870000008000800080000000000000000000010
:105880000000000000000000007F00010002000492
:10589000000800080010001000200040007F0000F9
:1058A00000000000000000000000000000000000F8
:1058B000003C0020002000200020002000200020CC
:1058C00000200020002000200020003C00000000FC
:1058D00000000000000000400060002000200030B8
:1058E00000100010001800080008000C000400045C
:1058F00000060002000000000000000000000000A0
:10590000001E00020002000200020002000200026B
:1059100000020002000200020002001E000000005F
:105920000000000000000000000800140014002225
:1059300000630041000000000000000000000000C3
:105940000000000000000000000000000000000057
:105950000000000000000000000000000000000047
:105960000000000000000000000000FF0000000038
:10597000000000000000001000080004000000000B
:105980000000000000000000000000000000000017
:105990000000000000000000000000000000000007
:1059A000000000000000003E00030001003F004135
:1059B00000410041003F0000000000000000000026
:1059C0000000000000000040004000400040007C5B
:1059D000004200410041004100410042007C0000C3
:1059E00000000000000000000000000000000000B7
:1059F000000000000000001F0020004000400040A8
:105A000000400020001F0000000000000000000017
:105A10000000000000000001000100010001001F63
:105A2000002100410041004100410021001F000011
:105A30000000000000000000000000000000000066
:105A4000000000000000001C00220041007F004018
:105A500000400020001E00000000000000000000C8
:105A6000000000000000000F801000100010007FF8
:105A700000100010001000100010001000100000B6
:105A80000000000000000000000000000000000016
:105A9000000000000000001F002100410041004103
:105AA00000410021001F00010002007C00000000F6
:105AB0000000000000000040004000400040007E68
:105AC000004100410041004100410041004100000F
:105AD00000000000000000000000000000000000C6
