:100000000C94B4080C94D5080C94D5080C94D5081D
:100010000C94D5080C94D5080C94D5080C94D508EC
:100020000C94D5080C94D5080C94D5080C94D729B9
:100030000C94D5080C94AE2A0C94A01E0C94CD1EE2
:100040000C94FA1E0C94271F0C94541F0C94811FBF
:100050000C94AE1F0C94DB1F0C9408200C943520DC
:100060000C94D5080C94D5080C94D5080C94D5089C
:100070000C94D5080C94D5080C94D5080C94D5088C
:100080000C94D5080C94D5080C94D5080C94D5087C
:100090000C94D5080C94D5080C94D5080C941A2807
:1000A0000C944C280C947E280C94B0280C94D50801
:1000B0000C94D5080C94D5080C94D52A0C942422C1
:1000C0000C9451220C947E220C94AB220C94D822D6
:1000D0000C9405230C9432230C945F230C948C23F2
:1000E0000C94B9230C94D5080C94AB120C94E21226
:1000F0000C94D5080C94D5080C94D5080C94D5080C
:100100000C94D5080C94D5080C94D5080C94D508FB
:100110000C94D5080C94D5080C94D5080C9452274F
:100120000C9484270C94B6270C94E8270C94D508DB
:100130000C94D5080C9462200C948F200C94BC2055
:100140000C94E9200C9416210C9443210C947021FA
:100150000C949D210C94CA210C94F7210C94D50881
:100160000C94D5080C94D5080C94D5080C94D5089B
:100170000C94D5080C94D5080C94D5080C94D5088B
:100180000C94D5080C94D5080C94D5080C94D5087B
:100190000C94D5080C94D5080C94D5080C94D5086B
:1001A0000C94EB110C94DA110C94D508FEC70000E6
:1001B0000C94E6230C9413240C9440240C946D248A
:1001C0000C949A240C94C724F0C70000EEC70000DA
:1001D000ECC70000EAC70000E8C70000E6C700005F
:1001E000E4C70000E2C70000E0C70000DEC700006F
:1001F000DCC700000C94FB2F0C94B330000000000F
:1002000000000000000000000000000000000000EE
:1002100000000000000000000000000000000000DE
:1002200000000000000000000000000000000000CE
:100230000C000C000C000C000C000C000C0000006A
:1002400000000E000E000E00000000000000000084
:10025000000000000000000024002400240024000E
:10026000240000000000000000000000000000006A
:10027000000000000000000000000000000000007E
:10028000000000003300330033007F807F803300A4
:10029000330033007F807F80330033000000000094
:1002A0000000000000000000000000000C000C0036
:1002B0001F007F00600060007C003F00078001801D
:1002C00041807F803E000C000C0000000000000018
:1002D0000000000000000000608091009200920089
:1002E000940068000B0014802480248044808300E4
:1002F00000000000000000000000000000000000FE
:1003000000001E003F00330033001E003D802F80A0
:100310006780630073807E803CC0000000000000A6
:10032000000000000000000000000C000C000C00A9
:100330000C000C00000000000000000000000000A5
:1003400000000000000000000000000000000000AD
:10035000000000000000030006000C001800180058
:1003600030003000300030003000180018000C0061
:100370000700030000000000000000000000000073
:10038000300038000C0006000600030003000300E4
:1003900003000300060006000C00180030000000F7
:1003A000000000000000000000000C000C006D8048
:1003B0007F800C001E0033000000000000000000E1
:1003C000000000000000000000000000000000002D
:1003D0000000000000000000000008000800080005
:1003E00008007F0008000800080008000000000066
:1003F00000000000000000000000000000000000FD
:1004000000000000000000000000000000000000EC
:100410000E000E000E0006000C0018000000000088
:1004200000000000000000000000000000000000CC
:100430000000000000001E0000000000000000009E
:1004400000000000000000000000000000000000AC
:10045000000000000000000000000000000000009C
:10046000000000001C001C001C0000000000000038
:100470000000000000000000000001000200020077
:10048000020004000400040008000800100010002E
:1004900010002000200020004000000000000000AC
:1004A0000000000000001E003F00330061806180FA
:1004B0006D806D806180618033003F001E00000010
:1004C000000000000000000000000000000000002C
:1004D00006000E003E00660006000600060006004C
:1004E000060006003F803F80000000000000000082
:1004F000000000000000000000003E007F004300FC
:100500000300030006000C001800300020007F00EC
:100510007F0000000000000000000000000000005C
:10052000000000003E007F802180018003801F00CA
:100530001F000380018043807F003E000000000018
:1005400000000000000000000000000000000300A8
:1005500007000F001B001300330063007F807F80C3
:100560000300030003000000000000000000000082
:1005700000000000000000003F803F80300030009D
:100580003E003F0003800180018043807F003E00E9
:10059000000000000000000000000000000000005B
:1005A000000007001F00380030007E007F006180DF
:1005B0006180618073803F001E0000000000000029
:1005C0000000000000000000000000007F807F802D
:1005D00001800300060006000C000C000C0018004F
:1005E00018001800000000000000000000000000DB
:1005F0000000000000001E003F80618061807300E9
:100600003E003F006380618061807F001E0000002B
:1006100000000000000000000000000000000000DA
:100620001E003F0073806180618061803F801F8079
:10063000030007003E00380000000000000000003A
:1006400000000000000000000000000000000000AA
:100650001C001C001C000000000000001C001C000E
:100660001C0000000000000000000000000000006E
:10067000000000000000000000001C001C001C0026
:100680000000000000000E000E000E0006000C002E
:100690001800000000000000000000000000000042
:1006A00000000000000001800F00380060007800AA
:1006B0000F000180000000000000000000000000AA
:1006C000000000000000000000000000000000002A
:1006D00000007F80000000007F800000000000001C
:1006E000000000000000000000000000000000000A
:1006F0000000000000000000000060003C00070057
:10070000018007003C0060000000000000000000C5
:100710000000000000000000000000003E007F001C
:100720004300030006000C001800000000001C003D
:100730001C001C0000000000000000000000000081
:100740000000000000000E001F0033803180618037
:1007500067806F806D806D806F80678030003800AB
:100760001F000F000000000000000000000000005B
:100770001C0036003600360036006300630063005C
:100780007F007F00C180C1800000000000000000E9
:10079000000000000000000000007C007F006300FB
:1007A000630063007C007F006180618063807F0064
:1007B0007E000000000000000000000000000000BB
:1007C000000000000F001F80388070006000600093
:1007D00060006000700030803F800F00000000006B
:1007E00000000000000000000000000000007C008D
:1007F0007F006300618061806180618061806180D1
:1008000063007F007C00000000000000000000008A
:1008100000000000000000003F803F8030003000FA
:1008200030003F003F003000300030003F803F800C
:1008300000000000000000000000000000000000B8
:1008400000003F803F803000300030003F003F001C
:1008500030003000300030003000000000000000A8
:100860000000000000000000000000000F001F80DA
:10087000388070006000600061806180718031802C
:100880003F800F800000000000000000000000001A
:1008900000000000000061806180618061806180F3
:1008A0007F807F80618061806180618061800000E5
:1008B0000000000000000000000000000000000038
:1008C0003F003F000C000C000C000C000C000C0062
:1008D0000C000C003F003F00000000000000000082
:1008E000000000000000000000003F003F00030087
:1008F00003000300030003000300030047007E0021
:100900003C000000000000000000000000000000AB
:10091000000000006180630066006E006C007800DB
:100920007C006C00660063006300618000000000D2
:100930000000000000000000000000000000300087
:100940003000300030003000300030003000300027
:1009500030003F803F8000000000000000000000E9
:10096000000000000000000033003300330033803B
:100970006D806D806D806D8061806180618061803F
:100980000000000000000000000000000000000067
:1009900000006180718071806980698065806580F8
:1009A00065806380638061806180000000000000DA
:1009B0000000000000000000000000001E003F00DA
:1009C000330061806180618061806180618033007B
:1009D0003F001E00000000000000000000000000BA
:1009E0000000000000007E007F0063806180618065
:1009F00063807F007E006000600060006000000097
:100A000000000000000000000000000000000000E6
:100A10001E003F00330061806180618061806180E1
:100A2000618073803F001E000E000780018000007F
:100A3000000000000000000000007E007F006380D6
:100A40006180618063807F007E006300630061805D
:100A500060C0000000000000000000000000000076
:100A6000000000001F003F806080600070003E00BA
:100A70001F000380018041807F803E000000000055
:100A800000000000000000000000000000007F8067
:100A90007F800C000C000C000C000C000C000C0003
:100AA0000C000C000C000000000000000000000022
:100AB00000000000000000006180618061806180B2
:100AC0006180618061806180618073803F001E0071
:100AD0000000000000000000000000000000000016
:100AE0000000C180C18063006300630073003600B2
:100AF00036003E001C001C001C000000000000002E
:100B0000000000000000000000000000C0C0C0C0E5
:100B1000C0C0C0C0CCC0CCC0DEC0DEC0D2C0F3C03C
:100B2000F1C0E1C000000000000000000000000073
:100B3000000000000000C1806300630036001C005C
:100B40001C001C003E00360063006300C1800000F2
:100B50000000000000000000000000000000000095
:100B6000C0C061806180330033001E001E000C0095
:100B70000C000C000C000C00000000000000000045
:100B8000000000000000000000007F807F800380E4
:100B9000030006000C001C001800300070007F806D
:100BA0007F80000000000000000000000000000046
:100BB000000000001E0010001000100010001000C7
:100BC00010001000100010001000100010001000A5
:100BD0001E00000000000000000000004000200097
:100BE0002000200010001000100008000800040081
:100BF00004000400020002000200010000000000E6
:100C000000000000000000001E00020002000200C0
:100C100002000200020002000200020002000200C4
:100C2000020002001E0000000000000000000000A2
:100C3000000008001C0014002200630041000000B6
:100C400000000000000000000000000000000000A4
:100C50000000000000000000000000000000000094
:100C60000000000000000000000000000000000084
:100C70000000000000000000FF80000000000000F5
:100C80000000000000000800040000000000000058
:100C90000000000000000000000000000000000054
:100CA0000000000000000000000000000000000044
:100CB0000000000000003F003F8001801F80618035
:100CC000618061807F801F800000000000000000C4
:100CD0000000000000000000600060006000600094
:100CE0007E007F00638061806180618063807F001F
:100CF0007E00000000000000000000000000000076
:100D0000000000000000000000000F803F80700025
:100D100060006000600070003F801F8000000000E5
:100D200000000000000000000000000001800180C1
:100D3000018001801F803F807180618061806180BF
:100D400071803F801F800000000000000000000054
:100D500000000000000000000000000000001E0075
:100D60003F8061807F806000600070003F001F0056
:100D70000000000000000000000000000000000073
:100D80000FC01FC0180018007F807F801800180057
:100D900018001800180018001800000000000000DB
:100DA0000000000000000000000000000000000043
:100DB00000001F803F807180618061806180718050
:100DC0003F801F8001807F007E0000000000000047
:100DD0000000000060006000600060007E007F0096
:100DE00063806180618061806180618061800000DA
:100DF00000000000000000000000000000000000F3
:100E00000C000C0000007C007C000C000C000C00AE
:100E10000C000C000F8007800000000000000000A4
:100E200000000000000000000000060006000000B6
:100E30003F003F0003000300030003000300030022
:100E4000030003007F003E000000000000000000DF
:100E500000006000600060006000638067006E005A
:100E60007C0078006C006600630061800000000078
:100E70000000000000000000000000007C007C007A
:100E80000C000C000C000C000C000C000C000C0002
:100E90000C000F8007800000000000000000000030
:100EA00000000000000000000000000000007F00C3
:100EB0007F806D806D806D806D80618061806180DC
:100EC0000000000000000000000000000000000022
:100ED00000000000000000007E007F006380618051
:100EE000618061806180618061800000000000009D
:100EF00000000000000000000000000000000000F2
:100F000000001E003F0073806180618061807380FB
:100F10003F001E0000000000000000000000000074
:100F20000000000000000000000000007E007F00C4
:100F3000638061806180618063807F007E006000EB
:100F400060006000000000000000000000000000E1
:100F50000000000000001F803F8071806180618080
:100F6000618071803F801F800180018001800000CE
:100F70000000000000000000000000000000000071
:100F80001F803F80300030003000300030003000E3
:100F90003000000000000000000000000000000021
:100FA000000000000000000000001F807F80600043
:100FB00078003F00078041807F803F0000000000F4
:100FC0000000000000000000000000000000180009
:100FD000180018007F807F80180018001800180083
:100FE00018001F800F8000000000000000000000BB
:100FF0000000000000000000000000000000618010
:101000006180618061806180618071803F801F802C
:1010100000000000000000000000000000000000D0
:101020000000000000000000618061803300330098
:10103000330033001E001E001E00000000000000F0
:1010400000000000000000000000000000000000A0
:101050000000C180C180C980C98059007700770035
:1010600077006300000000000000000000000000A6
:10107000000000000000000000000000618033005C
:101080001E001E000C001E001A00330061800000CC
:101090000000000000000000000000000000000050
:1010A0000000000000006180618031803300330067
:1010B0001B001B001F000E000E007C0078000000CB
:1010C0000000000000000000000000000000000020
:1010D0007F007F0006000C001800300030007F0009
:1010E0007F00000000000000000000000000000081
:1010F000000007800C000C000C000C000C000C0021
:101100000C0030000C000C000C000C000C000C005B
:101110000780000000000000000000000C000C0030
:101120000C000C000C000C000C000C000C000C005F
:101130000C000C000C000C000C000C000000000067
:1011400000000000000078000C000C000C000C00F7
:101150000C000C000C0003000C000C000C000C0038
:101160000C000C007800000011241FBECFEFCDBF93
:10117000DFE5DEBF00E00CBF11E5A0E0B0E2E6E392
:10118000F9E600E00BBF02C007900D92A836B10748
:10119000D9F729E5A8E6B1E501C01D92AD34B20743
:1011A000E1F70E9437110C9499340C9400006150BF
:1011B0007109810991096115710581059105B9F7D9
:1011C000089591E09093460690E1909346069091A1
:1011D000B10895FFFCCF9FB7F89420E42093B108A5
:1011E0008093B0089FBF8091B10886FFFCCF80E458
:1011F0008093B10881E0809345060895CF93C82F6E
:101200008AE2DFDF90916F518091B10885FFFCCFBA
:101210008FB7F89420E42093B1089093B0088FBF63
:1012200090916E518091B10885FFFCCF8FB7F894F3
:1012300020E42093B1089093B0088FBFCC23E1F055
:1012400090916B518091B10885FFFCCF8FB7F894D6
:1012500020E42093B1089093B0088FBF90916A5119
:101260008091B10885FFFCCF8FB7F89420E42093DC
:10127000B1089093B0088FBF8091B10886FFFCCF72
:1012800080E48093B10880E1809345068BE299DF8A
:1012900090916D518091B10885FFFCCF8FB7F89484
:1012A00020E42093B1089093B0088FBF90916C51C7
:1012B0008091B10885FFFCCF8FB7F89420E420938C
:1012C000B1089093B0088FBFCC23E1F090916951A1
:1012D0008091B10885FFFCCF8FB7F89420E420936C
:1012E000B1089093B0088FBF909168518091B10878
:1012F00085FFFCCF8FB7F89420E42093B10890933A
:10130000B0088FBF8091B10886FFFCCF80E4809346
:10131000B10880E180934506CF91089580936E5186
:1013200090936F5160936C5170936D5140936A51DB
:1013300050936B51209368513093695181E05ECF97
:101340001F93CF93DF931F92CDB7DEB7182F8CE298
:10135000998337DF99818091B10885FFFCCF8FB7E2
:10136000F89420E42093B1081093B0088FBF8091C7
:10137000B10885FFFCCF8FB7F89420E42093B10823
:101380009093B0088FBF8091B10886FFFCCF80E4B6
:101390008093B10880E1809345060F90DF91CF9153
:1013A0001F9108951F93CF93DF93CDB7DEB7259795
:1013B000CDBFDEBF182F8CE249835A836B837C83B9
:1013C0009D83FFDE20E449815A816B817C819D8170
:1013D0004150510961097109B8F08091B10885FF48
:1013E000FCCF8FB7F8942093B1081093B0088FBF4B
:1013F0008091B10885FFFCCF8FB7F8942093B10896
:101400009093B0088FBFE4CF8091B10886FFFCCFE6
:1014100080E48093B10880E1809345062596CDBF96
:10142000DEBFDF91CF911F9108951F93CF93DF937C
:1014300081E1C7DEC0E4D6E010E11D8360E87FE40F
:1014400082E190E0B4DE89E2BCDE1D83DF91CF91C2
:101450001F910895CF9395E0982790FD02C0C8E4AE
:1014600001C0C8E091FDC06892FDC06286E3A9DEBC
:101470008091B10885FFFCCF8FB7F89490E49093EA
:10148000B108C093B0088FBF8091B10886FFFCCF30
:1014900080E48093B10880E180934506CF91089560
:1014A000CF92DF92EF92FF920F931F93CF93DF9330
:1014B0001F92CDB7DEB7198280EB98E00E94162507
:1014C000C12CD12C760100E014E224EF30E040E0A2
:1014D000BE016F5F7F4F80EB98E00E94432512E0D2
:1014E0001093450660E878E381E090E060DE1093B9
:1014F000460660E878E381E090E059DE1093450607
:1015000060E87FE482E190E052DE8FDF8FEE59DE0B
:101510008091B10885FFFCCF8FB7F89490E4909349
:10152000B10893E09093B0088FBF8091B10885FF18
:10153000FCCF8FB7F89490E49093B10890E8909323
:10154000B0088FBF8091B10885FFFCCF8FB7F894AA
:1015500090E49093B10892E09093B0088FBF80918F
:10156000B10886FFFCCF80E48093B10880E18093CE
:1015700045068FEC26DE8091B10885FFFCCF8FB742
:10158000F89490E49093B1081092B0088FBF8091C6
:10159000B10885FFFCCF8FB7F89490E49093B10821
:1015A00091EC9093B0088FBF8091B10885FFFCCF7C
:1015B0008FB7F89490E49093B10890E39093B008BB
:1015C0008FBF8091B10886FFFCCF80E48093B10883
:1015D00080E1809345068DEEF4DD8091B10885FFB2
:1015E000FCCF8FB7F89490E49093B10894E6909371
:1015F000B0088FBF8091B10885FFFCCF8FB7F894FA
:1016000090E49093B10893E09093B0088FBF8091DD
:10161000B10885FFFCCF8FB7F89490E49093B108A0
:1016200092E19093B0088FBF8091B10885FFFCCF05
:101630008FB7F89490E49093B10891E89093B00834
:101640008FBF8091B10886FFFCCF80E48093B10802
:1016500080E18093450688EEB4DD8091B10885FF76
:10166000FCCF8FB7F89490E49093B10895E89093ED
:10167000B0088FBF8091B10885FFFCCF8FB7F89479
:1016800090E49093B1081092B0088FBF8091B10898
:1016900085FFFCCF8FB7F89490E49093B10898E75A
:1016A0009093B0088FBF8091B10886FFFCCF80E493
:1016B0008093B10880E1809345068BEC82DD8091B8
:1016C000B10885FFFCCF8FB7F89490E49093B108F0
:1016D00099E39093B0088FBF8091B10885FFFCCF4C
:1016E0008FB7F89490E49093B1089CE29093B0087F
:1016F0008FBF8091B10885FFFCCF8FB7F89490E43D
:101700009093B1081092B0088FBF8091B10885FF07
:10171000FCCF8FB7F89490E49093B10894E3909342
:10172000B0088FBF8091B10885FFFCCF8FB7F894C8
:1017300090E49093B10892E09093B0088FBF8091AD
:10174000B10886FFFCCF80E48093B10880E18093EC
:10175000450687EF36DD8091B10885FFFCCF8FB756
:10176000F89490E49093B10890E29093B0088FBF02
:101770008091B10886FFFCCF80E48093B10880E1BE
:10178000809345068AEE1DDD8091B10885FFFCCF70
:101790008FB7F89490E49093B1081092B0088FBF7F
:1017A0008091B10885FFFCCF8FB7F89490E49093B7
:1017B000B1081092B0088FBF8091B10886FFFCCFAE
:1017C00080E48093B10880E18093450680ECF9DCE9
:1017D0008091B10885FFFCCF8FB7F89490E4909387
:1017E000B10893E29093B0088FBF8091B10886FF53
:1017F000FCCF80E48093B10880E18093450681ECC2
:10180000E0DC8091B10885FFFCCF8FB7F89490E4BD
:101810009093B10890E19093B0088FBF8091B10888
:1018200086FFFCCF80E48093B10880E18093450679
:1018300085ECC7DC8091B10885FFFCCF8FB7F894A9
:1018400090E49093B1089EE39093B0088FBF80918D
:10185000B10885FFFCCF8FB7F89490E49093B1085E
:1018600098E29093B0088FBF8091B10886FFFCCFBB
:1018700080E48093B10880E18093450687ECA1DC89
:101880008091B10885FFFCCF8FB7F89490E49093D6
:10189000B10896E89093B0088FBF8091B10886FF99
:1018A000FCCF80E48093B10880E18093450686E315
:1018B00088DC8091B10885FFFCCF8FB7F89490E465
:1018C0009093B10898E49093B0088FBF8091B108CD
:1018D00086FFFCCF80E48093B10880E180934506C9
:1018E0008AE36FDC8091B10885FFFCCF8FB7F89455
:1018F00090E49093B10895E59093B0088FBF8091E4
:10190000B10886FFFCCF80E48093B10880E180932A
:10191000450681EB56DC8091B10885FFFCCF8FB77F
:10192000F89490E49093B1081092B0088FBF809122
:10193000B10885FFFCCF8FB7F89490E49093B1087D
:1019400098E19093B0088FBF8091B10886FFFCCFDB
:1019500080E48093B10880E18093450686EB31DC1A
:101960008091B10885FFFCCF8FB7F89490E49093F5
:10197000B10898E09093B0088FBF8091B10885FFBF
:10198000FCCF8FB7F89490E49093B10892E89093CD
:10199000B0088FBF8091B10885FFFCCF8FB7F89456
:1019A00090E49093B10897E29093B0088FBF809134
:1019B000B10886FFFCCF80E48093B10880E180937A
:1019C000450682EFFEDB8091B10885FFFCCF8FB723
:1019D000F89490E49093B1081092B0088FBF809172
:1019E000B10886FFFCCF80E48093B10880E180934A
:1019F000450686E2E6DB8091B10885FFFCCF8FB714
:101A0000F89490E49093B10891E09093B0088FBF60
:101A10008091B10886FFFCCF80E48093B10880E11B
:101A20008093450680EECDDB8091B10885FFFCCF29
:101A30008FB7F89490E49093B1089FE09093B0082A
:101A40008FBF8091B10885FFFCCF8FB7F89490E4E9
:101A50009093B10891E39093B0088FBF8091B10843
:101A600085FFFCCF8FB7F89490E49093B1089BE288
:101A70009093B0088FBF8091B10885FFFCCF8FB7DE
:101A8000F89490E49093B1089CE09093B0088FBFD5
:101A90008091B10885FFFCCF8FB7F89490E49093C4
:101AA000B1089EE09093B0088FBF8091B10885FF88
:101AB000FCCF8FB7F89490E49093B10898E090939E
:101AC000B0088FBF8091B10885FFFCCF8FB7F89425
:101AD00090E49093B1089EE49093B0088FBF8091FA
:101AE000B10885FFFCCF8FB7F89490E49093B108CC
:101AF00091EF9093B0088FBF8091B10885FFFCCF24
:101B00008FB7F89490E49093B10897E39093B0085E
:101B10008FBF8091B10885FFFCCF8FB7F89490E418
:101B20009093B10897E09093B0088FBF8091B1086F
:101B300085FFFCCF8FB7F89490E49093B10890E1C3
:101B40009093B0088FBF8091B10885FFFCCF8FB70D
:101B5000F89490E49093B10893E09093B0088FBF0D
:101B60008091B10885FFFCCF8FB7F89490E49093F3
:101B7000B1089EE09093B0088FBF8091B10885FFB7
:101B8000FCCF8FB7F89490E49093B10899E09093CC
:101B9000B0088FBF8091B10885FFFCCF8FB7F89454
:101BA00090E49093B1081092B0088FBF8091B10873
:101BB00086FFFCCF80E48093B10880E180934506E6
:101BC00081EEFFDA8091B10885FFFCCF8FB7F894E2
:101BD00090E49093B1081092B0088FBF8091B10843
:101BE00085FFFCCF8FB7F89490E49093B1089EE006
:101BF0009093B0088FBF8091B10885FFFCCF8FB75D
:101C0000F89490E49093B10894E19093B0088FBF5A
:101C10008091B10885FFFCCF8FB7F89490E4909342
:101C2000B10893E09093B0088FBF8091B10885FF11
:101C3000FCCF8FB7F89490E49093B10891E1909322
:101C4000B0088FBF8091B10885FFFCCF8FB7F894A3
:101C500090E49093B10897E09093B0088FBF809183
:101C6000B10885FFFCCF8FB7F89490E49093B1084A
:101C700091E39093B0088FBF8091B10885FFFCCFAE
:101C80008FB7F89490E49093B10891EC9093B008DA
:101C90008FBF8091B10885FFFCCF8FB7F89490E497
:101CA0009093B10898E49093B0088FBF8091B108E9
:101CB00085FFFCCF8FB7F89490E49093B10898E03B
:101CC0009093B0088FBF8091B10885FFFCCF8FB78C
:101CD000F89490E49093B1089FE09093B0088FBF80
:101CE0008091B10885FFFCCF8FB7F89490E4909372
:101CF000B1089CE09093B0088FBF8091B10885FF38
:101D0000FCCF8FB7F89490E49093B10891E390934F
:101D1000B0088FBF8091B10885FFFCCF8FB7F894D2
:101D200090E49093B10896E39093B0088FBF8091B0
:101D3000B10885FFFCCF8FB7F89490E49093B10879
:101D40009FE09093B0088FBF8091B10886FFFCCFD1
:101D500080E48093B10880E18093450680E07ADBDF
:101D600020EF30E040E451E060E070E080E090E09F
:101D7000D5DA0F90DF91CF911F910F91FF90EF90E7
:101D8000DF90CF9008959FB7F894E0E5F0E02081D0
:101D9000822B80839FBF08959FB7F894A0E5B0E0A1
:101DA00016968C911697897F16968C931697E0E677
:101DB000F0E080E885838BEB868316968C911697EE
:101DC000846016968C938081816080839FBF089584
:101DD000CF93DF9300D01F92CDB7DEB78FEF809304
:101DE00070008093710080937200809373008093E1
:101DF000740080937500809376006CE170E082E05F
:101E00000E9435348C836DE170E082E00E943534AD
:101E10008B838B819C81019621F480E493E28B83F8
:101E20009C838B819C8189839A83809362008A81C1
:101E30008093630082E0A7DF8091510081FFFCCF97
:101E4000ABDF61E080E490E00E942F349FB7F8940C
:101E5000809150008E7F809350009FBF2496CDBF0D
:101E6000DEBFDF91CF9108952FB7F894FC01E059C0
:101E7000FF4F60958081862380832FBF08952FB701
:101E8000F894FC01E059FF4F8081862B80832FBF9F
:101E90000895CF93863011F4C8E101C0C0E080916D
:101EA000510081FD07C082E06EDF8091510081FF0B
:101EB000FCCF72DF6C2F636084E490E00E942F34CB
:101EC00060E480E090E0CF91CFCF8F929F92AF926D
:101ED000BF92CF92DF92EF92FF920F931F93CF9317
:101EE000DF93CDB7DEB7CE5ED240CDBFDEBF8CE094
:101EF000ECECF0E2DE01AD51BD4F01900D928A9500
:101F0000E1F786E3E8EDF0E2DE01A95CBD4F019068
:101F10000D928A95E1F784E3EEE0F1E2DE01A35948
:101F2000BD4F01900D928A95E1F786E2E2E4F1E27D
:101F3000DE01AF55BD4F01900D928A95E1F75E012C
:101F40008FEFA81A8DEFB80A86E3E8E6F1E2D50133
:101F500001900D928A95E1F78CE1EEE9F1E2DE0164
:101F6000A953BD4F01900D928A95E1F7FE01ED5105
:101F7000FD4F4F01C12CD12C7601D3948E010F5F00
:101F80001F4FF8011192EA15FB05E1F7F401819169
:101F900091914F019C01D801FC0101900020E9F7CB
:101FA0003197E81BF90BAD01401B510B4E175F0732
:101FB00028F4F90141919F014D93EECFC701B6017D
:101FC0007CD4C801BFD489D4FFEFCF1ADF0AEF0A4F
:101FD000FF0A86E0C81681E0D806E104F10489F61C
:101FE000FE01E95CFD4F4F01C12C42E0D42EE12CF3
:101FF000F12CF8011192EA15FB05E1F7F40181914A
:1020000091914F019C01D801FC0101900020E9F75A
:102010003197E81BF90BAD01401B510B4E175F07C1
:1020200028F4F90141919F014D93EECFC701B6010C
:1020300044D4C80187D451D4FFEFCF1ADF0AEF0A86
:10204000FF0A8CE1C81682E0D806E104F10489F6A3
:10205000FE01E359FD4F4F01C12C33E0D32EE12C9B
:10206000F12CF8011192EA15FB05E1F7F4018191D9
:1020700091914F019C01D801FC0101900020E9F7EA
:102080003197E81BF90BAD01401B510B4E175F0751
:1020900028F4F90141919F014D93EECFC701B6019C
:1020A0000CD4C8014FD419D4FFEFCF1ADF0AEF0ABE
:1020B000FF0A8BE1C81683E0D806E104F10489F633
:1020C000FE01EF55FD4F4F01C12C24E0D22EE12C33
:1020D000F12CF8011192EA15FB05E1F7F401819169
:1020E00091914F019C01D801FC0101900020E9F77A
:1020F0003197E81BF90BAD01401B510B4E175F07E1
:1021000028F4F90141919F014D93EECFC701B6012B
:10211000D4D3C80117D4E1D3FFEFCF1ADF0AEF0AF7
:10212000FF0A83E1C81684E0D806E104F10489F6C9
:102130004501C12C95E0D92EE12CF12CF80111922A
:10214000EA15FB05E1F7F401819191914F019C01A2
:10215000D801FC0101900020E9F73197E81BF90B49
:10216000AD01401B510B4E175F0728F4F901419157
:102170009F014D93EECFC701B6019FD3C801E2D3B3
:10218000ACD3FFEFCF1ADF0AEF0AFF0A8CE1C816C3
:1021900085E0D806E104F10489F6FE01E953FD4F1C
:1021A0004F01C12C86E0D82EE12CF12C5E01FFEF0F
:1021B000AF1AFDEFBF0AF8011192EA15FB05E1F72E
:1021C000F401819191914F019C01D801FC01019092
:1021D0000020E9F73197E81BF90BAD01401B510BCB
:1021E0004E175F0728F4F90141919F014D93EECFFF
:1021F000C701B60162D3CE010196A4D36ED3FFEF1F
:10220000CF1ADF0AEF0AFF0A8EE0C81686E0D8066A
:10221000E104F10481F6C12CD12C7601FE01319646
:102220001192EA15FB05E1F7C701B60146D3CE01CD
:10223000019688D352D39FEFC91AD90AE90AF90A3D
:10224000E4E1CE16D104E104F10441F7C251DD4FBF
:10225000CDBFDEBFDF91CF911F910F91FF90EF9027
:10226000DF90CF90BF90AF909F908F900895AF92E6
:10227000BF92CF92DF92EF92FF920F931F93CF9373
:10228000DF930E94D025C7E0C093A200A1DDF9D45E
:102290005DD00E948B2602D2C093A20078948FD288
:1022A00080EA9AE0B3D0ADD38FD2882309F441C03D
:1022B0000CDE24D4EC011DD400E010E09E01AC0142
:1022C00060E070E080E090E01ED413D497FD0196AA
:1022D000BC0175956795A12CB12CF0E1CF2ED12CC6
:1022E000EE24EA94FE2C00EF1EE124EC30E244E1FF
:1022F00050E086E191E50E94E91DB8E0CB2ED12C9B
:1023000024EC30E248E250E06AE070E082E391E5DC
:102310000E94E91D24EC30E247E350E06AE070E0FF
:1023200086E491E50E94E91D79D080E180938606DC
:10233000FFCF80E090E0DF91CF911F910F91FF9050
:10234000EF90DF90CF90BF90AF9008950F931F93C1
:10235000CF93DF93CDB7DEB72997CDBFDEBF8E0118
:102360000F5F1F4F89E0F80111928A95E9F780E528
:1023700093ECA0E0B0E089839A83AB83BC838CE1CB
:1023800089878BED91E0A0E0B0E08D839E83AF83E1
:10239000B88760E485E090E067DDB80180EA94E00A
:1023A0000E94FC2A2996CDBFDEBFDF91CF911F91FD
:1023B0000F9108951F920F920FB60F9211248F93D1
:1023C00081E080930A59109209598F910F900FBEA6
:1023D0000F901F9018951F920F920FB60F92112415
:1023E0008F9381E080930B59109209598F910F9030
:1023F0000FBE0F901F9018956150710981099109C6
:102400006115710581059105B9F7089580931C59EF
:1024100090931D5964E070E20C942333EF92FF9285
:102420000F931F93CF93DF9300E216E0EE24E39423
:10243000F801E682C0E6D6E060E2F62EFD8260E4B6
:102440007CE980E090E0D8DFF801E582FE8280E15F
:10245000E0E8F6E08683DF91CF911F910F91FF9026
:10246000EF9008951F93CF93DF93EB018C8182301F
:1024700011F010E001C018E08D81813021F0823030
:1024800019F4106201C010638E81863049F018F48F
:10249000853069F009C0873029F0893039F004C0EF
:1024A000116005C0126003C0136001C0176060E1D5
:1024B00085E090E0D9DC1093A50A288139814A8112
:1024C0005B8183E0220F331F441F551F8A95D1F78C
:1024D00060E078ED88EB95E00E9453342F5F3F4F2A
:1024E0004F4F5F4F569547953795279521503109A6
:1024F0002093A60A3093A70ADF91CF911F910895E8
:1025000060E185E090E0B0DCE0E8F6E088E081831F
:1025100084E08283E0EAFAE08CE1848380E38383D1
:10252000089560E185E090E0AADCE0EAFAE0138239
:10253000148208958091A30A882319F083E380937D
:10254000A30A089591E090937051DADF81E0089535
:1025500010927051E6CF1F920F920FB60F92112476
:102560000BB60F922F933F934F935F936F937F938D
:102570008F939F93AF93BF93CF93EF93FF938091EC
:10258000A10A887109F051D5C091A00A98D681118D
:1025900002C04FD503C08C2F90E0E4D6FF91EF919D
:1025A000CF91BF91AF919F918F917F916F915F91EB
:1025B0004F913F912F910F900BBE0F900FBE0F9038
:1025C0001F9018951F920F920FB60F9211240BB601
:1025D0000F922F933F934F935F936F937F938F93BC
:1025E0009F93AF93BF93EF93FF93EDD5882321F093
:1025F00036D68093A00A03C080E38093A30AFF919C
:10260000EF91BF91AF919F918F917F916F915F916A
:102610004F913F912F910F900BBE0F900FBE0F90D7
:102620001F90189580E892E1A1E3B0E00197A1091D
:10263000B1090097A105B105C9F708950F931F933C
:10264000CF93DF93CDB7DEB72C97CDBFDEBF6C87BE
:102650008E010F5F1F4F9BE0F80111929A95E9F7E9
:1026600099E399838A8381E090E08D839E839E0124
:10267000245F3F4F2F83388789879A8740E0B801CE
:1026800080EA94E00E94142B892BC1F72C96CDBFD1
:10269000DEBFDF91CF911F910F91089563E080E835
:1026A000CDDF61E081E8CADF60E086E8C7DFBACF4E
:1026B00080EA99E00C941625CF92DF92EF92FF9278
:1026C0000F931F9381111AC0C12CD12C760100E009
:1026D0001BE127EB30E040E06DE070E280EA99E03A
:1026E0000E9443256DE070E280EA99E01F910F910E
:1026F000FF90EF90DF90CF900C9492251F910F9157
:10270000FF90EF90DF90CF900895811106C06DE0AB
:1027100070E280EA99E00C94A8250895CF93DF93A6
:102720001F92CDB7DEB7898341E050E0BE016F5FF5
:102730007F4F80EA99E00E945E250F90DF91CF9154
:10274000089541E050E0BC0180EA99E00C947A25BC
:10275000CF93DF931F92CDB7DEB7809171519091E7
:102760007251A0917351B091745135E1B695A7950E
:10277000979587953A95D1F79FDF87EDCFDFCE010B
:102780000196DFDF898187FFFACF809171519091A7
:102790007251A0917351B091745125E1B695A795EE
:1027A000979587952A95D1F7B0DF0F90DF91CF915C
:1027B0000895AB01BC0180EA99E00C945E2578DFB6
:1027C0001092755181E00895CF93DF931F92CDB79A
:1027D000DEB7198280E070DF87EDA0DFCE010196C1
:1027E000B0DF80E092DF29812C7330E081E02C3271
:1027F00031050CF480E00F90DF91CF910895CF93D5
:10280000DF9300D01F92CDB7DEB76130710520E2B3
:102810008207910510F080E04AC060937151709377
:1028200072518093735190937451809175518111BD
:102830008FDF109275518091715190917251A091DA
:102840007351B091745135E1B695A79597958795D9
:102850003A95D1F731DF82E861DF409171515091B3
:1028600072516091735170917451DB01CA01E9E0BA
:10287000B695A79597958795EA95D1F7FAE0880FD1
:10288000991FAA1FBB1FFA95D1F7517066277727AA
:10289000842B952BA62BB72B89839A83AB83BC8380
:1028A0008B813CDF8A813ADF898138DF81E02496A1
:1028B000CDBFDEBFDF91CF910895A9E0660F771FEE
:1028C000881F991FAA95D1F76130710520E2820710
:1028D000910508F494CF80E0089540917151509192
:1028E00072516091735170917451DB01CA01917002
:1028F000AA27BB27892B8A2B8B2BB1F080E00EDF18
:102900008091715190917251A0917351B091745115
:102910000196A11DB11D8093715190937251A093A6
:102920007351B0937451D9CFDB01CA0125E1B6953B
:10293000A795979587952A95D1F7E7DE81E0809353
:1029400075510895CF92DF92EF92FF921F93CF932C
:10295000DF93EC01609171517091725180917351CC
:10296000909174516B017C0122E0D20EE11CF11CAC
:1029700020917551211143DF11E0809171519091A7
:102980007251A0917351B09174518C159D05AE0593
:10299000BF0570F560E072E0CE010BDF4091715130
:1029A0005091725160917351709174515E5F6F4F8D
:1029B0007F4F409371515093725160937351709354
:1029C0007451DE5FDB01CA019170AA27BB27892BF6
:1029D0008A2B8B2B91F6DB01CA0165E1B695A79591
:1029E000979587956A95D1F790DE10937551C5CF6D
:1029F00081E0DF91CF911F91FF90EF90DF90CF901A
:102A00000895EF92FF920F931F93CF93DF93CDB76B
:102A1000DEB76097CDBFDEBF80E1EAEBF1E2DE0119
:102A2000119601900D928A95E1F78FE1E82E89E5E4
:102A3000F82E08E010E0B80181E00E943534F7017B
:102A40003197982F92959F70A1E0B0E0AC0FBD1F19
:102A5000A90FB11D9C9190838F70E1E0F0E0EC0F25
:102A6000FD1FE80FF11D8081F70180830F5F1F4F6D
:102A7000F2E0EF0EF11C0E301105E9F66096CDBFC5
:102A8000DEBFDF91CF911F910F91FF90EF9037C57F
:102A900080937651089597FF02C080E090E0FB019B
:102AA00077FF02C0E0E0F0E060912B5970912C5963
:102AB000461757071CF0AB01415051096091355939
:102AC00070913659261737071CF09B0121503109A8
:102AD00080932F5990933059E0933359F0933459A0
:102AE00040932D5950932E59209331593093325998
:102AF000089580912B5990912C59089580913559C2
:102B0000909136590895CF92DF92EF92FF920F93F2
:102B10001F93CF93DF93EA017901209709F47DC0D9
:102B20002115310509F479C057FF08C09A012F5FBC
:102B30003F4F820F931FD195C195D109F7FE08C071
:102B400097012F5F3F4F620F731FF194E194F108DB
:102B5000A0912D59B0912E59A817B9070CF45DC05A
:102B6000E0913159F0913259E617F7070CF455C04E
:102B700040912F59509130599C012C0F3D1F421705
:102B800053070CF04AC020913359309134596B01EE
:102B9000CE0CDF1C2C153D050CF03FC084179507AB
:102BA0002CF4841B950BC80FD91FCA016217730739
:102BB0002CF4621B730BE60EF71EB901AC014C0F2F
:102BC0005D1F415051099B012E0D3F1D21503109C0
:102BD000A417B5072CF4ED01C81BD90B2196AD0144
:102BE000E217F3073CF47F01E61AF70A2FEFE21A27
:102BF000F20A9F010E948E099701DE010E9475343E
:102C0000AB01BC01C801DF91CF911F910F91FF90E3
:102C1000EF90DF90CF900C94D209DF91CF911F916C
:102C20000F91FF90EF90DF90CF900895CF93DF93B7
:102C3000EA0120912F593091305982179307F4F00F
:102C400020912D5930912E5928173907BCF0209129
:102C50003359309134596217730784F020913159F8
:102C600030913259261737074CF09B01AC010E9476
:102C70008E09CE01DF91CF910C94A009DF91CF9105
:102C800008950F931F9380E491E080932B599093C4
:102C90002C5980EF90E080933559909336590E94DB
:102CA000500A80E1E0E6F6E08583209135593091C5
:102CB000365940912B5950912C5960E070E080E0DA
:102CC00090E0E9DE209135593091365940912B59E9
:102CD00050912C5900E010E060E070E080E090E05E
:102CE00012DF1F910F91089580918C56815080932F
:102CF0008C56089580E0089580E008956CE976E5AB
:102D000080E0B0CB80918B56815080938B56809120
:102D10008B561EDC10928A56089510928C56109293
:102D200098561092995681EA80938E5680E280934D
:102D30008F56109290561092915610929256109271
:102D4000935682E090E0809394569093955610921B
:102D500096561092975680E092ECA1E0B0E08093F6
:102D60009C5690939D56A0939E56B0939F5610925A
:102D7000A0561092A15688E08093A2566CE976E5A1
:102D800080E070DB80E0DEDB882329F090918C56B8
:102D90009F5F90938C560895FF920F931F93CF934C
:102DA000DF9380917A5181118EC00E94A02EC09134
:102DB0007B51D0917C518823A9F00E94AD2EC81779
:102DC000D90709F480C0DFB7F894C0917D51EC2F8A
:102DD000F0E0EE0FFF1FE258FE4A80819181892BBF
:102DE00029F503C00E94A82EEACF809177519091D7
:102DF0007851019680937751909378510E94A02E3C
:102E0000811109C080917751909178518436910554
:102E100010F4DFBF58C00E94A02E882339F08091A3
:102E20007751909178518032934098F31092775176
:102E30001092785180917951811106C081E0C111C1
:102E400080E080937D5104C081E0C11180E0C82FF3
:102E500081E080937A51DFBFD0E08E01000F111F17
:102E6000F801E258FE4AFF24F39480819181803476
:102E7000914031F4F12C10927B5110927C510DC095
:102E80000E94A02E882319F00E94AD2E02C00E943D
:102E9000A82E80937B5190937C51F801E258FE4A12
:102EA0002081318180E491E0C89FA001C99F500D2D
:102EB000D89F500D11244E575E4A0AE617E16F2D38
:102EC00081E80E94342FDF91CF911F910F91FF90E5
:102ED000089562CF892B99F480917D51E1E0F0E073
:102EE000882311F0E0E0F0E0EE0FFF1FE258FE4A09
:102EF000108211821092795110927A514DCF08951B
:102F00000F931F9390919A5691111EC0409198561D
:102F100050919956209196563091975642175307E3
:102F200099F0209198563091995620939656309367
:102F3000975607EA17E12AE030E04EE856E560E0F0
:102F40000E94342F80939A561F910F910895842FD9
:102F500010929A5620919856309199562378209342
:102F6000985630939956E6E9F6E520813181237829
:102F700020833183C5CF2FB7F894882359F08091EF
:102F8000985690919956862B972B809398569093AC
:102F900099560CC08091985690919956609570956D
:102FA0006823792360939856709399562FBF82E8CF
:102FB000A7CF90913D59892F807697FF0EC0803220
:102FC00091F580913E59813271F5809143599091EC
:102FD00044598730910539F51AC0803221F5809126
:102FE0003E59803239F08232F1F480913F5981703C
:102FF0004FDD17C080914359909144598730910516
:1030000091F42EE736E12093495930934A592CE93F
:1030100036E520934559309346598093475990930C
:10302000485981E0089580E0089560E170E081E012
:10303000A2CF60E470E081E09ECF4FB7F89420917A
:10304000035430910454E0910554F0E0EE0FFF1F5B
:10305000EA5FFB4A808191814FBF821B930B0895E9
:10306000ECDF21E0892B09F420E0822F08950F93F3
:103070001F93CF93DF934FB7F894509105548091ED
:103080000254811110C02091035430910454C52F73
:10309000D0E0FE01EE0FFF1FEA5FFB4A80819181C5
:1030A0002817390718F44FBF80E026C01092035448
:1030B0001092045481E0511180E08093055481E026
:1030C000809302544FBF80E0CBDF882311F080E073
:1030D00031DA80E491E0C89FA001C99F500DD89FCC
:1030E000500D1124465F5B4A05EB18E120E431E006
:1030F00061E082E00E94342FDF91CF911F910F9108
:10310000089510928B5610927A5110927951109224
:103110007D5110927E5110927F51109280511092E9
:10312000815110927B5110927C5136DE10920254E4
:10313000109205541092065410920754109208549D
:1031400010920954109203541092045490DF882373
:1031500059F090918B569F5F90938B5690918B5620
:10316000913011F490938A5608950F931F93A42FD2
:10317000892B31F580910554E1E08111E0E0F0E028
:103180006115710591F420E431E0E29FA001E39F15
:10319000500DF29F500D1124465F5B4A05EB18E17C
:1031A00061E08A2F0E94342F0BC0EE0FFF1FEA5FF1
:1031B000FB4A60837183109202541F910F9157CF85
:1031C0001F910F91089580E04BCFFF920F931F93B3
:1031D000CF93DF93FF24F3948091A256893009F0B6
:1031E000F12CC0E0D0E000E411E06FB7F8948091DA
:1031F0000354909104542091055430E0F901EE0FEE
:10320000FF1FEA5FFB4A408151816FBF841795071A
:1032100030F080918A568111E8CF90E01AC0209F4B
:10322000F001219FF00D309FF00D1124E80FF91FE0
:10323000E65FFB4A2081C22B019680930354909352
:10324000045415DFFF2021F0DC2FCC27F12CCDCF4B
:10325000CE01DF91CF911F910F91FF90089580E0F3
:10326000B4CF4FB7F89490917D51E92FF0E0EE0F75
:10327000FF1FE258FE4A20813181203481E0380767
:1032800089F480917A5181110DC080917951811119
:1032900009C081E080937951911180E080937D5144
:1032A00020E030E04FBF80E491E0821B930B089553
:1032B000D8DF21E0892B09F420E0822F089580E0F7
:1032C000F7CFEF92FF921F93CF93DF931F921F923E
:1032D000CDB7DEB711E08091A256893009F010E039
:1032E00020E4E22EFF24F39480E069837A83E0DF18
:1032F00069817A81811107C080918A568111F4CF4A
:1033000080E090E027C0AFB7F89420917D5130E085
:10331000F901EE0FFF1FE258FE4A80819181AC0156
:103320004F5F5F4F408351832E9DF0012F9DF00D25
:103330003E9DF00D1124E80FF91FEE57FE4A608301
:10334000AFBF112329F0672F770F770B10E0CCCF99
:1033500081E090E00F900F90DF91CF911F91FF904F
:10336000EF900895BC0180E0ACCF80913F598F77FA
:103370000C94A22E9091AA56992361F1E091A8563F
:10338000F091A9560190F081E02D9481891710F5F4
:10339000E093A656F093A756228133812E0F3F1F4C
:1033A000E217F30798F49181943061F492818913C4
:1033B00009C09381691306C0E093A656F093A756FF
:1033C00081E008959081E90FF11DEACFE093A656C0
:1033D000F093A75680E00895E091A856F091A95681
:1033E0000190F081E02D228133812E0F3F1FFC01DF
:1033F0004081E40FF11DE217F30748F48181843026
:1034000031F0853039F08081E80FF11DF4CF80E094
:1034100090E00895CF0108951F93CF93DF93182F65
:10342000A9DF882341F1C091A656D091A756CE01BD
:10343000D3DFEC01009749F04C815D816B818A817B
:103440000E94B92E8111F3CF16C0E091A856F091D9
:10345000A95692818381E92FF82FE10FF11DE10F29
:10346000F11D0190F081E02D0190F081E02DDF91C0
:10347000CF911F91199480E0DF91CF911F91089512
:10348000FF920F931F93CF93DF93C82F60E072DFFB
:10349000F82E882369F1E091A856F091A9569281FF
:1034A0008381E92FF82FEC0FF11DEC0FF11D008146
:1034B0001181D8011696ED91FC9117971995682FF7
:1034C0008C2F58DFF82E882399F0C091A656D09102
:1034D000A756CE0181DFEC01009721F08A810E947E
:1034E000E22FF7CFD8011296ED91FC911397199521
:1034F0008F2DDF91CF911F910F91FF9008950C9424
:10350000332ECF938091AA5681110AC01092AA56E9
:1035100081E090E08093AE569093AF56CF9108959E
:10352000C0E0E091A856F091A9560190F081E02DFD
:103530008481C81758F78C2FA3DFCF5FF2CFCF93CA
:103540008091AA568823F1F0C0E0E091A856F0914E
:10355000A956A081B18114968C91C81798F49281D4
:103560008381E92FF82FEC0FF11DEC0FF11D019075
:10357000F081E02D0084F185E02D309709F0199558
:10358000CF5FE3CFCF910895CF92DF92FF920F9359
:103590001F93CF93DF931F92CDB7DEB71092475999
:1035A000109248591092495910924A5910924B5909
:1035B00010924C5920913D5927FF07C080914359E3
:1035C00090914459892B09F451C2822F807609F0D9
:1035D000DAC127FF04C18091435990914459009763
:1035E00009F4D1C12F7109F0A1C020913E592630B4
:1035F00069F0283009F492C02111C5C1029709F081
:10360000C2C162E070E08EEA96E5E6C020913F59C3
:1036100030914059832F99278230910591F05CF4C5
:10362000019709F0B0C18091222090912320DC0104
:103630006C9170E060C08330910589F10F9711F1B2
:10364000A2C1E0912220F09123208189281708F05F
:103650009AC13327220F331F220F331FE0912420FA
:10366000F0912520E20FF31F80819181FC0162819E
:1036700073810E94B02EE0914559F091465982E045
:1036800081833BC08091262090912720009709F4E8
:103690007AC1DC0112966D917C9113972CC0C901FF
:1036A00099278130910541F058F08230910569F0F9
:1036B000039709F4D7C167C169E086EB90E208C0BF
:1036C00064E070E080EC90E216C06FE086EA90E281
:1036D000282FA8E8B0E2FC01819190E08D939D93A2
:1036E0008E2F821B8617C0F3660F6E5F6093862055
:1036F00070E086E890E20E94B02E8091435990914C
:10370000445920914759309148598217930708F03E
:1037100038C1809347599093485933C1019709F0B4
:1037200032C161E070E08AEA96E556C02130E9F5E1
:1037300020913E592A3009F026C1019709F023C192
:103740008091AA56882309F41EC1C0904159D09097
:1037500042590091A8561091A956D801ED91FC91BB
:103760008481C81608F00FC160E08C2D03DEF82EAE
:10377000882309F408C1DD24CC0CDD1CD801129685
:10378000ED91FC911397EC0DFD1D0190F081E02D62
:103790000680F781E02D19958093AC5661E070E0CA
:1037A0008CEA96E50E94B02EEAC0223009F0EBC008
:1037B00020913E592111E7C0029709F0E4C08091A1
:1037C00041590E94142F90E08093A4569093A556DF
:1037D00062E070E084EA96E50E94B02ED2C02F71BC
:1037E00009F07EC080913E59833009F4CCC018F4B2
:1037F0008130A1F0C8C0853019F0893039F1C3C0DB
:103800008091435990914459892B09F0BCC085EBB4
:1038100099E18093495990934A59B3C08091435993
:1038200090914459892B09F0AEC080913F599091F5
:103830004059019709F0A7C08091AE569091AF56BC
:103840008D7F8093AE569093AF569BC08091435925
:1038500090914459892B09F096C00E94A52E882387
:1038600009F491C080913F59909140599927E09176
:103870002220F0912320218930E02817390708F40D
:1038800082C03FDE20913F59309140592093AA5683
:10389000222309F476C033272150304C220F331FE6
:1038A000220F331F8091242090912520820F931F97
:1038B0008093A8569093A95610E0E091A856F091F5
:1038C000A9560190F081E02D8481181708F059C0A5
:1038D00060E0812FA1DD882309F455C01F5FEDCF83
:1038E0002130F1F480913E598B3009F04CC0809129
:1038F000435990914459892B09F045C08091AA56AB
:10390000882309F440C01091415960913F59812F9B
:103910006983B6DD69818823B1F1812F7DDD2EC0F9
:10392000223089F580913E59813019F0833091F031
:103930002AC08091435990914459892B21F5809157
:103940003F5990914059892BF1F4809141590E943F
:103950001B2F14C08091435990914459892B99F49D
:1039600080913F5990914059892B69F48091415938
:103970000E94B62F809141590E94EB2FF82EFF2014
:1039800011F081E074C080913D598F718130B9F59B
:103990008091AA56882399F1C0904159D0904259FC
:1039A0000091A8561091A956D801ED91FC918481FF
:1039B000C81628F560E08C2DDDDC882301F1C601F6
:1039C0009927880F991FD8011296ED91FC911397B2
:1039D000E80FF91F00811181D8011696ED91FC9135
:1039E00017971995682F8C2DC5DC882341F0D801D5
:1039F0001496ED91FC91159719958111C2CF809184
:103A00003D598F71823091F58091AA56882371F1CA
:103A100010E0E091A856F091A956A081B1811496CA
:103A20008C91181718F592818381E92FF82FE10FF7
:103A3000F11DE10FF11DC080D180D6011696ED91E8
:103A4000FC9117971995682F812F94DC882371F0CA
:103A5000D6011496ED91FC9115971995811191CF8E
:103A60001F5FD7CF6CE08EE199E532CE80E00F90FA
:103A7000DF91CF911F910F91FF90DF90CF9008952C
:103A80005F926F927F928F929F92AF92BF92CF92EE
:103A9000DF92EF92FF920F931F93CF93DF93B82E95
:103AA000962E872ED42EC52EE901003F8EE11807F1
:103AB00049F02D8130E04C8150E06D2D7C2D892D19
:103AC000982D21D888819981892B09F03EC08C815D
:103AD000482F469546954695877009F04F5F6D8152
:103AE000469FA00111242B2D30E08E81281B310927
:103AF000429FC001439F900D529F900D1124AA80B8
:103B0000BB80A80EB91E0D2D1C2D662E6D0C5C8081
:103B1000C92CD82C712C8C2D8919851590F487709F
:103B200029F4F5017490FFEFAF1ABF0A77FE04C0C5
:103B3000A701B801C6017AD88FEFC81AD80A770C46
:103B4000EACF0F5F1F4F6012E2CFDF91CF911F913D
:103B50000F91FF90EF90DF90CF90BF90AF909F902C
:103B60008F907F906F905F900895EF92FF920F93E8
:103B70001F93CF93DF93DB011496EC901497F12CF5
:103B800015960C9110E0EC01F80160E070E0A1E006
:103B9000B0E089918A3029F4E00FF11F60E070E015
:103BA00008C08D3031F06E0D7F1DA617B7070CF4DD
:103BB000DB0188818111EDCFEA01A883B983D901A6
:103BC000ED93FC93DF91CF911F910F91FF90EF90B8
:103BD00008952F923F924F925F926F927F928F92B1
:103BE0009F92AF92BF92CF92DF92EF92FF920F938C
:103BF0001F93CF93DF93CDB7DEB72A97CDBFDEBF3C
:103C00002C014B013A0119010F831887E986FA86C6
:103C10009E012F5F3F4FAE014D5F5F4FB101A5DFAA
:103C2000C1FE07C089819A8197FD01969595879578
:103C300004C0C2FE04C089819A81681A790AC4FE50
:103C400007C08B819C8197FD01969595879504C04F
:103C5000C5FE38C08B819C81881A990A33C04D30CB
:103C600029F0D10114964C91840F911D2F014081B0
:103C7000442321F041914A3091F72F01B2E0AB1675
:103C8000B10459F5CB80DC80D7FE03C0EFEFCE1A2C
:103C9000DE0AD594C79497FD019695958795C81A25
:103CA000D90AC80CD91C3D832E83AD81BE818D916C
:103CB000AD83BE838A30D1F4F101858190E0019615
:103CC000680E791ED2018C91882321F1342D252D87
:103CD000E42DF52D80E090E0CDCFF1E0AF16B104FA
:103CE00019F4CB80DC80DBCF6401DDCF8D3061F057
:103CF000E984FA840F8118859101A301B601C0DE21
:103D0000F1018481C80ED11CAD81BE818C918111DD
:103D1000CCCFD2CF2A96CDBFDEBFDF91CF911F91FE
:103D20000F91FF90EF90DF90CF90BF90AF909F905A
:103D30008F907F906F905F904F903F902F9008955D
:103D40001F920F920FB60F9211240BB60F922F9362
:103D50003F934F935F936F937F938F939F93AF9313
:103D6000BF93EF93FF93E091F656F091F75630979B
:103D700009F01995FF91EF91BF91AF919F918F91AC
:103D80007F916F915F914F913F912F910F900BBE5B
:103D90000F900FBE0F901F9018951F920F920FB6A5
:103DA0000F9211240BB60F922F933F934F935F9373
:103DB0006F937F938F939F93AF93BF93EF93FF93F3
:103DC000E091F456F091F556309709F01995FF916E
:103DD000EF91BF91AF919F918F917F916F915F9183
:103DE0004F913F912F910F900BBE0F900FBE0F90F0
:103DF0001F9018951F920F920FB60F9211240BB6B9
:103E00000F922F933F934F935F936F937F938F9373
:103E10009F93AF93BF93EF93FF93E091F256F0918E
:103E2000F356309709F01995FF91EF91BF91AF913B
:103E30009F918F917F916F915F914F913F912F91C2
:103E40000F900BBE0F900FBE0F901F9018951F92F2
:103E50000F920FB60F9211240BB60F922F933F9330
:103E60004F935F936F937F938F939F93AF93BF9382
:103E7000EF93FF93E091F056F091F156309709F0EF
:103E80001995FF91EF91BF91AF919F918F917F9184
:103E90006F915F914F913F912F910F900BBE0F90BB
:103EA0000FBE0F901F9018951F920F920FB60F9292
:103EB00011240BB60F922F933F934F935F936F9301
:103EC0007F938F939F93AF93BF93EF93FF93E09173
:103ED000EE56F091EF56309709F01995FF91EF915A
:103EE000BF91AF919F918F917F916F915F914F9112
:103EF0003F912F910F900BBE0F900FBE0F901F9010
:103F000018951F920F920FB60F9211240BB60F92B5
:103F10002F933F934F935F936F937F938F939F93D1
:103F2000AF93BF93EF93FF93E091EC56F091ED5672
:103F3000309709F01995FF91EF91BF91AF919F9143
:103F40008F917F916F915F914F913F912F910F9042
:103F50000BBE0F900FBE0F901F9018951F920F92DF
:103F60000FB60F9211240BB60F922F933F934F93DE
:103F70005F936F937F938F939F93AF93BF93EF93D1
:103F8000FF93E091EA56F091EB56309709F01995BE
:103F9000FF91EF91BF91AF919F918F917F916F9121
:103FA0005F914F913F912F910F900BBE0F900FBEDD
:103FB0000F901F9018951F920F920FB60F92112419
:103FC0000BB60F922F933F934F935F936F937F9313
:103FD0008F939F93AF93BF93EF93FF93E091E85636
:103FE000F091E956309709F01995FF91EF91BF9143
:103FF000AF919F918F917F916F915F914F913F9181
:104000002F910F900BBE0F900FBE0F901F90189521
:104010001F920F920FB60F9211240BB60F922F938F
:104020003F934F935F936F937F938F939F93AF9340
:10403000BF93EF93FF93E091E656F091E7563097E8
:1040400009F01995FF91EF91BF91AF919F918F91D9
:104050007F916F915F914F913F912F910F900BBE88
:104060000F900FBE0F901F9018951F920F920FB6D2
:104070000F9211240BB60F922F933F934F935F93A0
:104080006F937F938F939F93AF93BF93EF93FF9320
:10409000E091E456F091E556309709F01995FF91BB
:1040A000EF91BF91AF919F918F917F916F915F91B0
:1040B0004F913F912F910F900BBE0F900FBE0F901D
:1040C0001F9018951F920F920FB60F9211240BB6E6
:1040D0000F922F933F934F935F936F937F938F93A1
:1040E0009F93AF93BF93EF93FF93E091E256F091CC
:1040F000E356309709F01995FF91EF91BF91AF9179
:104100009F918F917F916F915F914F913F912F91EF
:104110000F900BBE0F900FBE0F901F9018951F921F
:104120000F920FB60F9211240BB60F922F933F935D
:104130004F935F936F937F938F939F93AF93BF93AF
:10414000EF93FF93E091E056F091E156309709F03C
:104150001995FF91EF91BF91AF919F918F917F91B1
:104160006F915F914F913F912F910F900BBE0F90E8
:104170000FBE0F901F9018951F920F920FB60F92BF
:1041800011240BB60F922F933F934F935F936F932E
:104190007F938F939F93AF93BF93EF93FF93E091A0
:1041A000DE56F091DF56309709F01995FF91EF91A7
:1041B000BF91AF919F918F917F916F915F914F913F
:1041C0003F912F910F900BBE0F900FBE0F901F903D
:1041D00018951F920F920FB60F9211240BB60F92E3
:1041E0002F933F934F935F936F937F938F939F93FF
:1041F000AF93BF93EF93FF93E091DC56F091DD56C0
:10420000309709F01995FF91EF91BF91AF919F9170
:104210008F917F916F915F914F913F912F910F906F
:104220000BBE0F900FBE0F901F9018951F920F920C
:104230000FB60F9211240BB60F922F933F934F930B
:104240005F936F937F938F939F93AF93BF93EF93FE
:10425000FF93E091DA56F091DB56309709F019950B
:10426000FF91EF91BF91AF919F918F917F916F914E
:104270005F914F913F912F910F900BBE0F900FBE0A
:104280000F901F9018951F920F920FB60F92112446
:104290000BB60F922F933F934F935F936F937F9340
:1042A0008F939F93AF93BF93EF93FF93E091D85673
:1042B000F091D956309709F01995FF91EF91BF9180
:1042C000AF919F918F917F916F915F914F913F91AE
:1042D0002F910F900BBE0F900FBE0F901F9018954F
:1042E0001F920F920FB60F9211240BB60F922F93BD
:1042F0003F934F935F936F937F938F939F93AF936E
:10430000BF93EF93FF93E091D656F091D756309735
:1043100009F01995FF91EF91BF91AF919F918F9106
:104320007F916F915F914F913F912F910F900BBEB5
:104330000F900FBE0F901F9018951F920F920FB6FF
:104340000F9211240BB60F922F933F934F935F93CD
:104350006F937F938F939F93AF93BF93EF93FF934D
:10436000E091D456F091D556309709F01995FF9108
:10437000EF91BF91AF919F918F917F916F915F91DD
:104380004F913F912F910F900BBE0F900FBE0F904A
:104390001F9018951F920F920FB60F9211240BB613
:1043A0000F922F933F934F935F936F937F938F93CE
:1043B0009F93AF93BF93EF93FF93E091D256F09109
:1043C000D356309709F01995FF91EF91BF91AF91B6
:1043D0009F918F917F916F915F914F913F912F911D
:1043E0000F900BBE0F900FBE0F901F9018951F924D
:1043F0000F920FB60F9211240BB60F922F933F938B
:104400004F935F936F937F938F939F93AF93BF93DC
:10441000EF93FF93E091D056F091D156309709F089
:104420001995FF91EF91BF91AF919F918F917F91DE
:104430006F915F914F913F912F910F900BBE0F9015
:104440000FBE0F901F9018951F920F920FB60F92EC
:1044500011240BB60F922F933F934F935F936F935B
:104460007F938F939F93AF93BF93EF93FF93E091CD
:10447000CE56F091CF56309709F01995FF91EF91F4
:10448000BF91AF919F918F917F916F915F914F916C
:104490003F912F910F900BBE0F900FBE0F901F906A
:1044A00018951F920F920FB60F9211240BB60F9210
:1044B0002F933F934F935F936F937F938F939F932C
:1044C000AF93BF93EF93FF93E091CC56F091CD560D
:1044D000309709F01995FF91EF91BF91AF919F919E
:1044E0008F917F916F915F914F913F912F910F909D
:1044F0000BBE0F900FBE0F901F9018951F920F923A
:104500000FB60F9211240BB60F922F933F934F9338
:104510005F936F937F938F939F93AF93BF93EF932B
:10452000FF93E091CA56F091CB56309709F0199558
:10453000FF91EF91BF91AF919F918F917F916F917B
:104540005F914F913F912F910F900BBE0F900FBE37
:104550000F901F9018951F920F920FB60F92112473
:104560000BB60F922F933F934F935F936F937F936D
:104570008F939F93AF93BF93EF93FF93E091C856B0
:10458000F091C956309709F01995FF91EF91BF91BD
:10459000AF919F918F917F916F915F914F913F91DB
:1045A0002F910F900BBE0F900FBE0F901F9018957C
:1045B0001F920F920FB60F9211240BB60F922F93EA
:1045C0003F934F935F936F937F938F939F93AF939B
:1045D000BF93EF93FF93E091C656F091C756309783
:1045E00009F01995FF91EF91BF91AF919F918F9134
:1045F0007F916F915F914F913F912F910F900BBEE3
:104600000F900FBE0F901F9018951F920F920FB62C
:104610000F9211240BB60F922F933F934F935F93FA
:104620006F937F938F939F93AF93BF93EF93FF937A
:10463000E091C456F091C556309709F01995FF9155
:10464000EF91BF91AF919F918F917F916F915F910A
:104650004F913F912F910F900BBE0F900FBE0F9077
:104660001F9018951F920F920FB60F9211240BB640
:104670000F922F933F934F935F936F937F938F93FB
:104680009F93AF93BF93EF93FF93E091C256F09146
:10469000C356309709F01995FF91EF91BF91AF91F3
:1046A0009F918F917F916F915F914F913F912F914A
:1046B0000F900BBE0F900FBE0F901F9018951F927A
:1046C0000F920FB60F9211240BB60F922F933F93B8
:1046D0004F935F936F937F938F939F93AF93BF930A
:1046E000EF93FF93E091C056F091C156309709F0D7
:1046F0001995FF91EF91BF91AF919F918F917F910C
:104700006F915F914F913F912F910F900BBE0F9042
:104710000FBE0F901F9018951F920F920FB60F9219
:1047200011240BB60F922F933F934F935F936F9388
:104730007F938F939F93AF93BF93EF93FF93E091FA
:10474000BE56F091BF56309709F01995FF91EF9141
:10475000BF91AF919F918F917F916F915F914F9199
:104760003F912F910F900BBE0F900FBE0F901F9097
:1047700018951F920F920FB60F9211240BB60F923D
:104780002F933F934F935F936F937F938F939F9359
:10479000AF93BF93EF93FF93E091BC56F091BD565A
:1047A000309709F01995FF91EF91BF91AF919F91CB
:1047B0008F917F916F915F914F913F912F910F90CA
:1047C0000BBE0F900FBE0F901F9018951F920F9267
:1047D0000FB60F9211240BB60F922F933F934F9366
:1047E0005F936F937F938F939F93AF93BF93EF9359
:1047F000FF93E091BA56F091BB56309709F01995A6
:10480000FF91EF91BF91AF919F918F917F916F91A8
:104810005F914F913F912F910F900BBE0F900FBE64
:104820000F901F9018951F920F920FB60F921124A0
:104830000BB60F922F933F934F935F936F937F939A
:104840008F939F93AF93BF93EF93FF93E091B856ED
:10485000F091B956309709F01995FF91EF91BF91FA
:10486000AF919F918F917F916F915F914F913F9108
:104870002F910F900BBE0F900FBE0F901F901895A9
:104880001F920F920FB60F9211240BB60F922F9317
:104890003F934F935F936F937F938F939F93AF93C8
:1048A000BF93EF93FF93E091B656F091B7563097D0
:1048B00009F01995FF91EF91BF91AF919F918F9161
:1048C0007F916F915F914F913F912F910F900BBE10
:1048D0000F900FBE0F901F9018951F920F920FB65A
:1048E0000F9211240BB60F922F933F934F935F9328
:1048F0006F937F938F939F93AF93BF93EF93FF93A8
:10490000E091B456F091B556309709F01995FF91A2
:10491000EF91BF91AF919F918F917F916F915F9137
:104920004F913F912F910F900BBE0F900FBE0F90A4
:104930001F9018951F920F920FB60F9211240BB66D
:104940000F922F933F934F935F936F937F938F9328
:104950009F93AF93BF93EF93FF93E091B256F09183
:10496000B356309709F01995FF91EF91BF91AF9130
:104970009F918F917F916F915F914F913F912F9177
:104980000F900BBE0F900FBE0F901F9018951F92A7
:104990000F920FB60F9211240BB60F922F933F93E5
:1049A0004F935F936F937F938F939F93AF93BF9337
:1049B000EF93FF93E091B056F091B156309709F024
:1049C0001995FF91EF91BF91AF919F918F917F9139
:1049D0006F915F914F913F912F910F900BBE0F9070
:1049E0000FBE0F901F901895FC0180E090E0262FDD
:1049F00030E0D901082E02C0B595A7950A94E2F7D8
:104A0000A0FF05C0DF01A80FB91F50965C93019667
:104A10008830910571F740FF07C041FF02C06583F0
:104A200001C066836183089562830895803A28E017
:104A3000920711F460E105C0803B28E0920721F461
:104A400060E283E090E01CC0803A29E0920711F414
:104A500060E105C0803B29E0920721F460E284E038
:104A600090E00EC0803A2AE0920721F460E185E0F0
:104A700090E006C0803A9B4029F460E186E090E037
:104A80000C94340F08950F931F93CF93DF9300D0AE
:104A900000D0CDB7DEB709831A832B833C834D83C7
:104AA0001E82BE016F5F7F4F0E9480332696CDBF6E
:104AB000DEBFDF91CF911F910F910895DC01FB01C3
:104AC000460F571F80E4E417F50789F0919111967E
:104AD0002C91119725FFFBCF9C9311969C911197D8
:104AE00096FFFBCF11968C9311979C91ECCF80E0B1
:104AF00090E00895FC01460F571F8FEF90E4641774
:104B0000750769F0218125FFFDCF8083218126FF74
:104B1000FDCF91832081DB012D93BD01F0CF80E09B
:104B200090E00895FB018081E82FE695E695E695F3
:104B300090E2E99FF0011124FA5F282F277081E0AD
:104B400090E0022E01C0880F0A94EAF78683089548
:104B5000FB018081E82FE695E695E69590E2E99FD6
:104B6000F0011124FA5F282F277081E090E0022ED7
:104B700001C0880F0A94EAF785830895AB01982F46
:104B8000969596959695877061E070E001C0660FE6
:104B90008A95EAF720E2929FC00111249A5F24CF00
:104BA000CF93DF9363E070E484E2E8DF60E07BE1D1
:104BB00080E0E4DF60E07BE181E0E0DF60E07BE17A
:104BC00085E0DCDF60E07BE183E0D8DF60E07BE173
:104BD00082E0D4DF60E07BE184E0D0DF60E07BE175
:104BE00087E0CCDF60E07BE186E0C8DF63E070E077
:104BF00088E1C4DF61E070E08DE1C0DF61E070E07A
:104C000088E0BCDF61E070E08AE0B8DF61E070E07E
:104C10008BE0B4DF68E170E08AE2B0DFC0EAD6E0A2
:104C20008985816089878A8584608A8768E170E0E8
:104C300089E2A4DF8985846089878B8582608B8780
:104C400063E070E089E19ADF63E070E08BE196DF7A
:104C500060E070E08AE192DF63E070E08BE28EDF7B
:104C600063E070E087E18ADF63E070E085E186DF82
:104C700060E070E086E182DF63E070E084E17EDF87
:104C800060E070E08FE27ADF61E070E080E176DF83
:104C900061E070E08CE172DF61E070E081E16EDF85
:104CA00068E170E082E16ADF63E070E083E266DF82
:104CB00060E070E082E2DF91CF9160CF623051F529
:104CC0002091F8562F5F2093F856213039F4409305
:104CD000F9565093FA561092FB5614C08091F9562B
:104CE0009091FA56840F951F969587958093F95663
:104CF0009093FA56243031F41092F85681E0809364
:104D0000FB5608959FB7F894809140028860809385
:104D100040029FBF0895CF93DF93CDB7DEB72B97A7
:104D2000CDBFDEBFBE016F5F7F4F80E492E08CD2CB
:104D3000AE01485F5F4F62E080E492E0F0D28A818A
:104D40009B819F7890619B8397E09D83817E8061AA
:104D50008A831C82BE016F5F7F4F80E492E032D273
:104D60006EE576E280E492E018D081E0888788E002
:104D700089878A85807F81608A87AE01485F5F4F1F
:104D800062E080E492E083D280E492E05AD02B96F5
:104D9000CDBFDEBFDF91CF9108952FB7F894811575
:104DA00032E0930729F46093395970933A5907C058
:104DB0008034924021F460933759709338592FBF53
:104DC0000895811522E0920761F48091FD5691E0EB
:104DD000980F9093FD56811114C062E081E090E03D
:104DE0000EC08034924069F48091FC5691E0980F97
:104DF0009093FC56811105C062E082E090E00C9433
:104E0000340F0895811522E0920759F48091FD56E0
:104E100081508093FD56811113C062E081E090E0E3
:104E20000DC08034924061F48091FC568150809393
:104E3000FC56811105C062E082E090E00C943F0FC7
:104E400008951F93CF93DF93EC011FB7F894B9DF58
:104E50008881816088831FBF809117598F3F09F433
:104E6000FFCF9FB7F894809117598F5F80931759A0
:104E70009FBFDF91CF911F910895682F70E082E06E
:104E80000C943534CF93DF9381E2F7DFC82FD0E065
:104E9000DC2FCC2780E2F1DF9E01282BC901DF91B6
:104EA000CF9108951F920F920FB60F9211240BB657
:104EB0000F922F933F934F935F936F937F938F93B3
:104EC0009F93AF93BF93EF93FF93E0E0F2E044A191
:104ED00055A1E0913959F0913A5961E080E092E0B2
:104EE0001995FF91EF91BF91AF919F918F917F9114
:104EF0006F915F914F913F912F910F900BBE0F904B
:104F00000FBE0F901F9018951F920F920FB60F9221
:104F100011240BB60F922F933F934F935F936F9390
:104F20007F938F939F93AF93BF93EF93FF93E8E2A9
:104F3000F2E044815581E0913959F0913A5962E0AB
:104F400080E092E01995FF91EF91BF91AF919F9111
:104F50008F917F916F915F914F913F912F910F9022
:104F60000BBE0F900FBE0F901F9018951F920F92BF
:104F70000FB60F9211240BB60F922F933F934F93BE
:104F80005F936F937F938F939F93AF93BF93EF93B1
:104F9000FF93E0E3F2E044815581E0913959F091CB
:104FA0003A5964E080E092E01995FF91EF91BF914A
:104FB000AF919F918F917F916F915F914F913F91B1
:104FC0002F910F900BBE0F900FBE0F901F90189552
:104FD0001F920F920FB60F9211240BB60F922F93C0
:104FE0003F934F935F936F937F938F939F93AF9371
:104FF000BF93EF93FF93E8E3F2E044815581E091A2
:105000003959F0913A5968E080E092E01995FF91A2
:10501000EF91BF91AF919F918F917F916F915F9130
:105020004F913F912F910F900BBE0F900FBE0F909D
:105030001F9018951F920F920FB60F9211240BB666
:105040000F922F933F934F935F936F937F938F9321
:105050009F93AF93BF93EF93FF93E0E4F2E044A1FB
:1050600055A1E0913759F091385961E080E492E020
:105070001995FF91EF91BF91AF919F918F917F9182
:105080006F915F914F913F912F910F900BBE0F90B9
:105090000FBE0F901F9018951F920F920FB60F9290
:1050A00011240BB60F922F933F934F935F936F93FF
:1050B0007F938F939F93AF93BF93EF93FF93E8E614
:1050C000F2E044815581E0913759F091385962E01E
:1050D00080E492E01995FF91EF91BF91AF919F917C
:1050E0008F917F916F915F914F913F912F910F9091
:1050F0000BBE0F900FBE0F901F9018951F920F922E
:105100000FB60F9211240BB60F922F933F934F932C
:105110005F936F937F938F939F93AF93BF93EF931F
:10512000FF93E0E7F2E044815581E0913759F09137
:10513000385964E080E492E01995FF91EF91BF91B6
:10514000AF919F918F917F916F915F914F913F911F
:105150002F910F900BBE0F900FBE0F901F901895C0
:105160001F920F920FB60F9211240BB60F922F932E
:105170003F934F935F936F937F938F939F93AF93DF
:10518000BF93EF93FF93E8E7F2E044815581E0910C
:105190003759F091385968E080E492E01995FF9111
:1051A000EF91BF91AF919F918F917F916F915F919F
:1051B0004F913F912F910F900BBE0F900FBE0F900C
:1051C0001F901895DF92EF92FF920F931F93CF934A
:1051D000DF93EC018B01C11582E0D80719F452DE90
:1051E0007C010DC0C034E2E0DE0731F585E245DE2A
:1051F000E82EF12C84E241DEFE2CEE24E82ADFB614
:10520000F894CE01DEDD288182E08883EC86FD867D
:10521000F80185819681888F998F82818A83848124
:105220008C8383818B838181898321708081282B6A
:105230002883CE01E7DDDFBEDF91CF911F910F9173
:10524000FF90EF90DF900895FF920F931F93CF93FD
:10525000DF93EC018B01FFB6F894B3DD8881807C8D
:10526000F8018083888D998D858396838A818283D6
:105270008C8184838B81838389818183CE01C2DD8C
:10528000FFBEDF91CF911F910F91FF900895AF92D4
:10529000BF92DF92EF92FF920F931F93CF93DF9312
:1052A0001F92CDB7DEB77C018A01862F8370962FBF
:1052B00021F49695969582E001C080E090FF8F5F83
:1052C000570190E2A90EB11CE8E08E9FA00CB11C22
:1052D0001124DFB6F894C701698373DDF80180817A
:1052E000F5018083F8018281F5018283F8018181D3
:1052F000F5018183698160FF04C0F8018381F501B4
:105300008683C7017FDDDFBE0F90DF91CF911F91B4
:105310000F91FF90EF90DF90BF90AF900895AF9204
:10532000BF92DF92EF92FF920F931F93CF93DF9381
:105330001F92CDB7DEB77C018A01862F8370962F2E
:1053400021F49695969582E001C080E090FF8F5FF2
:10535000570190E2A90EB11CE8E08E9FA00CB11C91
:105360001124DFB6F894C70169832BDDF501808134
:10537000F8018083F5018281F8018283F501818142
:10538000F8018183698160FF04C0F5018681F8011D
:105390008383C70137DDDFBE0F90DF91CF911F916F
:1053A0000F91FF90EF90DF90BF90AF9008951F9204
:1053B0000F920FB60F9211240BB60F922F933F93BB
:1053C0004F935F936F937F938F939F93AF93BF930D
:1053D000EF93FF9310922204E0913B59F0913C59D6
:1053E000309781F080E1809321048091210484FD35
:1053F000FCCF609124047091250480912604909143
:1054000027041995FF91EF91BF91AF919F918F91D3
:105410007F916F915F914F913F912F910F900BBEB4
:105420000F900FBE0F901F901895CF93DF93E091D0
:10543000FE56F091FF56848183FF07C08860848305
:1054400083E0838386EF9FEF82C0982F947129F0C9
:1054500083E083838FEF9FEF7AC086FF40C0A091E7
:105460000057B091015780910257909103571496BD
:105470002D913C9115978217930764F49C012F5F3F
:105480003F4F2093025730930357A80FB91F11962F
:105490008C9121C0809104579091055718962D91B9
:1054A0003C91199782179307C0F420910657222345
:1054B00021F08681816086834EC016960D90BC9146
:1054C000A02D9C012F5F3F4F209304573093055729
:1054D000A80FB91F8C9187833EC083E02BC087FF44
:1054E00034C0A0910057B09101578091045790911A
:1054F000055718962D913C9119978217930700F53F
:105500001696CD91DC9117979C012F5F3F4F20930A
:105510000457309305574781C80FD91F4883189601
:105520008D919C9119972817390718F482E083838D
:1055300012C087E0838310920857109209570BC05E
:1055400083E0838389EF9FEF02C08BEF9FEF80930F
:10555000085790930957DF91CF9108951F920F92AA
:105560000FB60F9211240BB60F922F933F934F93C8
:105570005F936F937F938F939F93AF93BF93EF93BB
:10558000FF9353DFFF91EF91BF91AF919F918F9167
:105590007F916F915F914F913F912F910F900BBE33
:1055A0000F900FBE0F901F9018951F920F920FB67D
:1055B0000F9211240BB60F922F933F934F935F934B
:1055C0006F937F938F939F93AF93BF93EF93FF93CB
:1055D0002CDFFF91EF91BF91AF919F918F917F91C0
:1055E0006F915F914F913F912F910F900BBE0F9054
:1055F0000FBE0F901F901895FC01DB0114968C9143
:10560000858388E7818381E0848310920757109215
:10561000085710920957E0EAF0E0828181608283A6
:10562000789480E090E00895FB01009709F44CC065
:10563000309709F449C0328520910757222321F081
:105640003323E1F386EF41C05FB7F89421E0209364
:10565000075720E83FEF20930857309309575FBF63
:105660008093FE569093FF56E0930057F0930157B6
:105670001092025710920357109204571092055738
:10568000409306575081550F24813581232B11F407
:1056900041115160FC015683809108579091095740
:1056A00080389F4FC9F3E091FE56F091FF568481F8
:1056B0008370813009F0F7CF209108573091095756
:1056C00010920757C901089588EF9FEF0895FC01D4
:1056D000EA5EF64A80818F3F09F4FFCF9FB7F894C6
:1056E00080818F5F80839FBF0895FC01EA5EF64A48
:1056F0008081811101C0FFCF9FB7F89480818150D4
:1057000080839FBF0895CF93C82F80913858C111CF
:1057100006C0882349F081E090E0E7DF05C08111F1
:1057200003C081E090E0D3DFC0933858CF91089553
:10573000282F2F70992787FD90958827990F881F0C
:105740009927820F911D820F911D43E0880F991FA9
:105750004A95E1F78C5F974A08950F93E8ECF4E0DF
:1057600080818F7D808380818F7D8083ECE0F8E570
:1057700002E0059310920E5810920F5800E2069323
:1057800000E40693E4E0F8E500E2069300E4069303
:105790001092495910924A5910924B5910924C59F3
:1057A00010924759109248591092F3571092F4579B
:1057B0000F9108950F9385E090E08093F3579093B5
:1057C000F457EDE0F8E504E00593E5E0F8E504E0E2
:1057D00005930F9108950F9383E090E08093F35722
:1057E0009093F45710920E5810920F58ECE0F8E591
:1057F00002E006930F910895E0914959F0914A59BA
:10580000309709F019940895982F9F70282F332707
:1058100027FD30952227330F221F3327290F311DF3
:10582000290F311D2250310949E0429FC001439F99
:10583000900D11248557984A08958F929F92BF9298
:10584000CF92DF92EF92FF920F931F93CF93DF934C
:10585000B82EDADFEC018B2D6BDF7C01DC011196B9
:10586000EC91E770E150E73040F4F0E0EE0FFF1FFD
:10587000E75AFE4A0081118102C008E010E0ED8184
:10588000FE818B819C814881D701B7FE4FC016965F
:105890002D913C9117972E0F3F1F2D833E83281784
:1058A000390799F1FC01E21BF30B9F012115F4E08C
:1058B0003F0738F02FEF33E0C901B801E0D7281BCC
:1058C000390B41FF09C0C901B801D9D741E0892B83
:1058D00009F040E0942F01C090E0888190FB81F9AD
:1058E0008883D70116961D921C92179712962D93B6
:1058F0003C93139789819A812D813E81820F931F5A
:1059000014968D939C9315970DC041FF70C04D7FE9
:105910004883D70116961D921C92179712961D92D6
:105920001C921397F70102E006937BC01296CD906C
:10593000DC90139742FF0FC089809A80B8019FD7EF
:10594000B0E4BB9EB00111246553794AAC01C40197
:105950008E0F9F1FE5D76D817E816C0D7D1D6D8340
:105960007E832B813C812617370710F42D833E83DD
:10597000F70186819781C816D906C9F58D819E8168
:1059800082179307A1F1281B390B2115F4E03F077B
:1059900010F02FEF33E0C901B80171D7281B390B84
:1059A000D70112961D921C9213972017310778F495
:1059B000888184608883B0E4BB9EC0011124855334
:1059C000994AF7018483958306831783ABCF898136
:1059D0009A814D815E81840F951FD70114968D9316
:1059E0009C93159716962D933C9317979BCF888180
:1059F00080FF17C08E7F8883EF81F885309789F00C
:105A00006D817E814B2D80E090E0DF91CF911F91E1
:105A10000F91FF90EF90DF90CF90BF909F908F906D
:105A20001994DF91CF911F910F91FF90EF90DF902C
:105A3000CF90BF909F908F9008950F93CF93DF9357
:105A40008091F3579091F457039729F4D5DEDF91B5
:105A5000CF910F9182CE2091EF573091F057C091A6
:105A60004759D0914859C21BD30B79F58091F15712
:105A70009091F257820F931F8093F1579093F257B2
:105A800020914359309144592817390721F08091CA
:105A90000A57882349F084E090E08093F35790936D
:105AA000F457E4E0F8E536C0E0914B59F0914C59D9
:105AB000309799F01995882381F01092EF57109242
:105AC000F057C0914759D0914859C034D10528F0BA
:105AD00010920A57C0E4D0E003C081E080930A57D7
